{
  "contractName": "NFTContract",
  "abi": [
    {
      "inputs": [],
      "stateMutability": "nonpayable",
      "type": "constructor"
    },
    {
      "inputs": [
        {
          "internalType": "address",
          "name": "sender",
          "type": "address"
        },
        {
          "internalType": "uint256",
          "name": "tokenId",
          "type": "uint256"
        },
        {
          "internalType": "address",
          "name": "owner",
          "type": "address"
        }
      ],
      "name": "ERC721IncorrectOwner",
      "type": "error"
    },
    {
      "inputs": [
        {
          "internalType": "address",
          "name": "operator",
          "type": "address"
        },
        {
          "internalType": "uint256",
          "name": "tokenId",
          "type": "uint256"
        }
      ],
      "name": "ERC721InsufficientApproval",
      "type": "error"
    },
    {
      "inputs": [
        {
          "internalType": "address",
          "name": "approver",
          "type": "address"
        }
      ],
      "name": "ERC721InvalidApprover",
      "type": "error"
    },
    {
      "inputs": [
        {
          "internalType": "address",
          "name": "operator",
          "type": "address"
        }
      ],
      "name": "ERC721InvalidOperator",
      "type": "error"
    },
    {
      "inputs": [
        {
          "internalType": "address",
          "name": "owner",
          "type": "address"
        }
      ],
      "name": "ERC721InvalidOwner",
      "type": "error"
    },
    {
      "inputs": [
        {
          "internalType": "address",
          "name": "receiver",
          "type": "address"
        }
      ],
      "name": "ERC721InvalidReceiver",
      "type": "error"
    },
    {
      "inputs": [
        {
          "internalType": "address",
          "name": "sender",
          "type": "address"
        }
      ],
      "name": "ERC721InvalidSender",
      "type": "error"
    },
    {
      "inputs": [
        {
          "internalType": "uint256",
          "name": "tokenId",
          "type": "uint256"
        }
      ],
      "name": "ERC721NonexistentToken",
      "type": "error"
    },
    {
      "inputs": [
        {
          "internalType": "address",
          "name": "owner",
          "type": "address"
        }
      ],
      "name": "OwnableInvalidOwner",
      "type": "error"
    },
    {
      "inputs": [
        {
          "internalType": "address",
          "name": "account",
          "type": "address"
        }
      ],
      "name": "OwnableUnauthorizedAccount",
      "type": "error"
    },
    {
      "anonymous": false,
      "inputs": [
        {
          "indexed": true,
          "internalType": "address",
          "name": "owner",
          "type": "address"
        },
        {
          "indexed": true,
          "internalType": "address",
          "name": "approved",
          "type": "address"
        },
        {
          "indexed": true,
          "internalType": "uint256",
          "name": "tokenId",
          "type": "uint256"
        }
      ],
      "name": "Approval",
      "type": "event"
    },
    {
      "anonymous": false,
      "inputs": [
        {
          "indexed": true,
          "internalType": "address",
          "name": "owner",
          "type": "address"
        },
        {
          "indexed": true,
          "internalType": "address",
          "name": "operator",
          "type": "address"
        },
        {
          "indexed": false,
          "internalType": "bool",
          "name": "approved",
          "type": "bool"
        }
      ],
      "name": "ApprovalForAll",
      "type": "event"
    },
    {
      "anonymous": false,
      "inputs": [
        {
          "indexed": false,
          "internalType": "uint256",
          "name": "tokenId",
          "type": "uint256"
        },
        {
          "indexed": false,
          "internalType": "string",
          "name": "description",
          "type": "string"
        },
        {
          "indexed": false,
          "internalType": "string",
          "name": "imageURL",
          "type": "string"
        }
      ],
      "name": "NFTCreated",
      "type": "event"
    },
    {
      "anonymous": false,
      "inputs": [
        {
          "indexed": true,
          "internalType": "address",
          "name": "previousOwner",
          "type": "address"
        },
        {
          "indexed": true,
          "internalType": "address",
          "name": "newOwner",
          "type": "address"
        }
      ],
      "name": "OwnershipTransferred",
      "type": "event"
    },
    {
      "anonymous": false,
      "inputs": [
        {
          "indexed": true,
          "internalType": "address",
          "name": "from",
          "type": "address"
        },
        {
          "indexed": true,
          "internalType": "address",
          "name": "to",
          "type": "address"
        },
        {
          "indexed": true,
          "internalType": "uint256",
          "name": "tokenId",
          "type": "uint256"
        }
      ],
      "name": "Transfer",
      "type": "event"
    },
    {
      "inputs": [
        {
          "internalType": "address",
          "name": "to",
          "type": "address"
        },
        {
          "internalType": "uint256",
          "name": "tokenId",
          "type": "uint256"
        }
      ],
      "name": "approve",
      "outputs": [],
      "stateMutability": "nonpayable",
      "type": "function"
    },
    {
      "inputs": [
        {
          "internalType": "address",
          "name": "owner",
          "type": "address"
        }
      ],
      "name": "balanceOf",
      "outputs": [
        {
          "internalType": "uint256",
          "name": "",
          "type": "uint256"
        }
      ],
      "stateMutability": "view",
      "type": "function"
    },
    {
      "inputs": [
        {
          "internalType": "uint256",
          "name": "tokenId",
          "type": "uint256"
        }
      ],
      "name": "getApproved",
      "outputs": [
        {
          "internalType": "address",
          "name": "",
          "type": "address"
        }
      ],
      "stateMutability": "view",
      "type": "function"
    },
    {
      "inputs": [
        {
          "internalType": "address",
          "name": "owner",
          "type": "address"
        },
        {
          "internalType": "address",
          "name": "operator",
          "type": "address"
        }
      ],
      "name": "isApprovedForAll",
      "outputs": [
        {
          "internalType": "bool",
          "name": "",
          "type": "bool"
        }
      ],
      "stateMutability": "view",
      "type": "function"
    },
    {
      "inputs": [],
      "name": "name",
      "outputs": [
        {
          "internalType": "string",
          "name": "",
          "type": "string"
        }
      ],
      "stateMutability": "view",
      "type": "function"
    },
    {
      "inputs": [
        {
          "internalType": "uint256",
          "name": "",
          "type": "uint256"
        }
      ],
      "name": "nfts",
      "outputs": [
        {
          "internalType": "uint256",
          "name": "tokenId",
          "type": "uint256"
        },
        {
          "internalType": "string",
          "name": "description",
          "type": "string"
        },
        {
          "internalType": "string",
          "name": "imageURL",
          "type": "string"
        }
      ],
      "stateMutability": "view",
      "type": "function"
    },
    {
      "inputs": [],
      "name": "owner",
      "outputs": [
        {
          "internalType": "address",
          "name": "",
          "type": "address"
        }
      ],
      "stateMutability": "view",
      "type": "function"
    },
    {
      "inputs": [
        {
          "internalType": "uint256",
          "name": "tokenId",
          "type": "uint256"
        }
      ],
      "name": "ownerOf",
      "outputs": [
        {
          "internalType": "address",
          "name": "",
          "type": "address"
        }
      ],
      "stateMutability": "view",
      "type": "function"
    },
    {
      "inputs": [],
      "name": "renounceOwnership",
      "outputs": [],
      "stateMutability": "nonpayable",
      "type": "function"
    },
    {
      "inputs": [
        {
          "internalType": "address",
          "name": "from",
          "type": "address"
        },
        {
          "internalType": "address",
          "name": "to",
          "type": "address"
        },
        {
          "internalType": "uint256",
          "name": "tokenId",
          "type": "uint256"
        }
      ],
      "name": "safeTransferFrom",
      "outputs": [],
      "stateMutability": "nonpayable",
      "type": "function"
    },
    {
      "inputs": [
        {
          "internalType": "address",
          "name": "from",
          "type": "address"
        },
        {
          "internalType": "address",
          "name": "to",
          "type": "address"
        },
        {
          "internalType": "uint256",
          "name": "tokenId",
          "type": "uint256"
        },
        {
          "internalType": "bytes",
          "name": "data",
          "type": "bytes"
        }
      ],
      "name": "safeTransferFrom",
      "outputs": [],
      "stateMutability": "nonpayable",
      "type": "function"
    },
    {
      "inputs": [
        {
          "internalType": "address",
          "name": "operator",
          "type": "address"
        },
        {
          "internalType": "bool",
          "name": "approved",
          "type": "bool"
        }
      ],
      "name": "setApprovalForAll",
      "outputs": [],
      "stateMutability": "nonpayable",
      "type": "function"
    },
    {
      "inputs": [
        {
          "internalType": "bytes4",
          "name": "interfaceId",
          "type": "bytes4"
        }
      ],
      "name": "supportsInterface",
      "outputs": [
        {
          "internalType": "bool",
          "name": "",
          "type": "bool"
        }
      ],
      "stateMutability": "view",
      "type": "function"
    },
    {
      "inputs": [],
      "name": "symbol",
      "outputs": [
        {
          "internalType": "string",
          "name": "",
          "type": "string"
        }
      ],
      "stateMutability": "view",
      "type": "function"
    },
    {
      "inputs": [],
      "name": "tokenCounter",
      "outputs": [
        {
          "internalType": "uint256",
          "name": "",
          "type": "uint256"
        }
      ],
      "stateMutability": "view",
      "type": "function"
    },
    {
      "inputs": [
        {
          "internalType": "uint256",
          "name": "tokenId",
          "type": "uint256"
        }
      ],
      "name": "tokenURI",
      "outputs": [
        {
          "internalType": "string",
          "name": "",
          "type": "string"
        }
      ],
      "stateMutability": "view",
      "type": "function"
    },
    {
      "inputs": [
        {
          "internalType": "address",
          "name": "from",
          "type": "address"
        },
        {
          "internalType": "address",
          "name": "to",
          "type": "address"
        },
        {
          "internalType": "uint256",
          "name": "tokenId",
          "type": "uint256"
        }
      ],
      "name": "transferFrom",
      "outputs": [],
      "stateMutability": "nonpayable",
      "type": "function"
    },
    {
      "inputs": [
        {
          "internalType": "address",
          "name": "newOwner",
          "type": "address"
        }
      ],
      "name": "transferOwnership",
      "outputs": [],
      "stateMutability": "nonpayable",
      "type": "function"
    },
    {
      "inputs": [
        {
          "internalType": "string",
          "name": "_description",
          "type": "string"
        },
        {
          "internalType": "string",
          "name": "_imageURL",
          "type": "string"
        }
      ],
      "name": "createNFT",
      "outputs": [
        {
          "internalType": "uint256",
          "name": "",
          "type": "uint256"
        }
      ],
      "stateMutability": "nonpayable",
      "type": "function"
    },
    {
      "inputs": [
        {
          "internalType": "uint256",
          "name": "_tokenId",
          "type": "uint256"
        }
      ],
      "name": "getNFT",
      "outputs": [
        {
          "components": [
            {
              "internalType": "uint256",
              "name": "tokenId",
              "type": "uint256"
            },
            {
              "internalType": "string",
              "name": "description",
              "type": "string"
            },
            {
              "internalType": "string",
              "name": "imageURL",
              "type": "string"
            }
          ],
          "internalType": "struct NFTContract.NFT",
          "name": "",
          "type": "tuple"
        }
      ],
      "stateMutability": "view",
      "type": "function"
    }
  ],
  "bytecode": "0x608060405234801562000010575f80fd5b50336040518060400160405280600881526020017f4e4654546f6b656e0000000000000000000000000000000000000000000000008152506040518060400160405280600381526020017f4e46540000000000000000000000000000000000000000000000000000000000815250815f90816200008e91906200045c565b508060019081620000a091906200045c565b5050505f73ffffffffffffffffffffffffffffffffffffffff168173ffffffffffffffffffffffffffffffffffffffff160362000116575f6040517f1e4fbdf70000000000000000000000000000000000000000000000000000000081526004016200010d919062000583565b60405180910390fd5b62000127816200013560201b60201c565b505f6007819055506200059e565b5f60065f9054906101000a900473ffffffffffffffffffffffffffffffffffffffff1690508160065f6101000a81548173ffffffffffffffffffffffffffffffffffffffff021916908373ffffffffffffffffffffffffffffffffffffffff1602179055508173ffffffffffffffffffffffffffffffffffffffff168173ffffffffffffffffffffffffffffffffffffffff167f8be0079c531659141344cd1fd0a4f28419497f9722a3daafe3b4186f6b6457e060405160405180910390a35050565b5f81519050919050565b7f4e487b71000000000000000000000000000000000000000000000000000000005f52604160045260245ffd5b7f4e487b71000000000000000000000000000000000000000000000000000000005f52602260045260245ffd5b5f60028204905060018216806200027457607f821691505b6020821081036200028a57620002896200022f565b5b50919050565b5f819050815f5260205f209050919050565b5f6020601f8301049050919050565b5f82821b905092915050565b5f60088302620002ee7fffffffffffffffffffffffffffffffffffffffffffffffffffffffffffffffff82620002b1565b620002fa8683620002b1565b95508019841693508086168417925050509392505050565b5f819050919050565b5f819050919050565b5f620003446200033e620003388462000312565b6200031b565b62000312565b9050919050565b5f819050919050565b6200035f8362000324565b620003776200036e826200034b565b848454620002bd565b825550505050565b5f90565b6200038d6200037f565b6200039a81848462000354565b505050565b5b81811015620003c157620003b55f8262000383565b600181019050620003a0565b5050565b601f8211156200041057620003da8162000290565b620003e584620002a2565b81016020851015620003f5578190505b6200040d6200040485620002a2565b8301826200039f565b50505b505050565b5f82821c905092915050565b5f620004325f198460080262000415565b1980831691505092915050565b5f6200044c838362000421565b9150826002028217905092915050565b6200046782620001f8565b67ffffffffffffffff81111562000483576200048262000202565b5b6200048f82546200025c565b6200049c828285620003c5565b5f60209050601f831160018114620004d2575f8415620004bd578287015190505b620004c985826200043f565b86555062000538565b601f198416620004e28662000290565b5f5b828110156200050b57848901518255600182019150602085019450602081019050620004e4565b868310156200052b578489015162000527601f89168262000421565b8355505b6001600288020188555050505b505050505050565b5f73ffffffffffffffffffffffffffffffffffffffff82169050919050565b5f6200056b8262000540565b9050919050565b6200057d816200055f565b82525050565b5f602082019050620005985f83018462000572565b92915050565b6128e980620005ac5f395ff3fe608060405234801561000f575f80fd5b506004361061012a575f3560e01c806370a08231116100ab578063b88d4fde1161006f578063b88d4fde14610354578063c87b56dd14610370578063d082e381146103a0578063e985e9c5146103be578063f2fde38b146103ee5761012a565b806370a08231146102c2578063715018a6146102f25780638da5cb5b146102fc57806395d89b411461031a578063a22cb465146103385761012a565b8063265aa621116100f2578063265aa621146101e457806342842e0e14610216578063576f7ea7146102325780636352211e1461026257806368613d17146102925761012a565b806301ffc9a71461012e57806306fdde031461015e578063081812fc1461017c578063095ea7b3146101ac57806323b872dd146101c8575b5f80fd5b61014860048036038101906101439190611c78565b61040a565b6040516101559190611cbd565b60405180910390f35b6101666104eb565b6040516101739190611d60565b60405180910390f35b61019660048036038101906101919190611db3565b61057a565b6040516101a39190611e1d565b60405180910390f35b6101c660048036038101906101c19190611e60565b610595565b005b6101e260048036038101906101dd9190611e9e565b6105ab565b005b6101fe60048036038101906101f99190611db3565b6106aa565b60405161020d93929190611efd565b60405180910390f35b610230600480360381019061022b9190611e9e565b6107dc565b005b61024c60048036038101906102479190611db3565b6107fb565b6040516102599190611feb565b60405180910390f35b61027c60048036038101906102779190611db3565b61094f565b6040516102899190611e1d565b60405180910390f35b6102ac60048036038101906102a79190612137565b610960565b6040516102b991906121ad565b60405180910390f35b6102dc60048036038101906102d791906121c6565b610a38565b6040516102e991906121ad565b60405180910390f35b6102fa610aee565b005b610304610b01565b6040516103119190611e1d565b60405180910390f35b610322610b29565b60405161032f9190611d60565b60405180910390f35b610352600480360381019061034d919061221b565b610bb9565b005b61036e600480360381019061036991906122f7565b610bcf565b005b61038a60048036038101906103859190611db3565b610bec565b6040516103979190611d60565b60405180910390f35b6103a8610c52565b6040516103b591906121ad565b60405180910390f35b6103d860048036038101906103d39190612377565b610c58565b6040516103e59190611cbd565b60405180910390f35b610408600480360381019061040391906121c6565b610ce6565b005b5f7f80ac58cd000000000000000000000000000000000000000000000000000000007bffffffffffffffffffffffffffffffffffffffffffffffffffffffff1916827bffffffffffffffffffffffffffffffffffffffffffffffffffffffff191614806104d457507f5b5e139f000000000000000000000000000000000000000000000000000000007bffffffffffffffffffffffffffffffffffffffffffffffffffffffff1916827bffffffffffffffffffffffffffffffffffffffffffffffffffffffff1916145b806104e457506104e382610d6a565b5b9050919050565b60605f80546104f9906123e2565b80601f0160208091040260200160405190810160405280929190818152602001828054610525906123e2565b80156105705780601f1061054757610100808354040283529160200191610570565b820191905f5260205f20905b81548152906001019060200180831161055357829003601f168201915b5050505050905090565b5f61058482610dd3565b5061058e82610e59565b9050919050565b6105a782826105a2610e92565b610e99565b5050565b5f73ffffffffffffffffffffffffffffffffffffffff168273ffffffffffffffffffffffffffffffffffffffff160361061b575f6040517f64a0ae920000000000000000000000000000000000000000000000000000000081526004016106129190611e1d565b60405180910390fd5b5f61062e8383610629610e92565b610eab565b90508373ffffffffffffffffffffffffffffffffffffffff168173ffffffffffffffffffffffffffffffffffffffff16146106a4578382826040517f64283d7b00000000000000000000000000000000000000000000000000000000815260040161069b93929190612412565b60405180910390fd5b50505050565b6008602052805f5260405f205f91509050805f0154908060010180546106cf906123e2565b80601f01602080910402602001604051908101604052809291908181526020018280546106fb906123e2565b80156107465780601f1061071d57610100808354040283529160200191610746565b820191905f5260205f20905b81548152906001019060200180831161072957829003601f168201915b50505050509080600201805461075b906123e2565b80601f0160208091040260200160405190810160405280929190818152602001828054610787906123e2565b80156107d25780601f106107a9576101008083540402835291602001916107d2565b820191905f5260205f20905b8154815290600101906020018083116107b557829003601f168201915b5050505050905083565b6107f683838360405180602001604052805f815250610bcf565b505050565b610803611bf2565b60085f8381526020019081526020015f206040518060600160405290815f8201548152602001600182018054610838906123e2565b80601f0160208091040260200160405190810160405280929190818152602001828054610864906123e2565b80156108af5780601f10610886576101008083540402835291602001916108af565b820191905f5260205f20905b81548152906001019060200180831161089257829003601f168201915b505050505081526020016002820180546108c8906123e2565b80601f01602080910402602001604051908101604052809291908181526020018280546108f4906123e2565b801561093f5780601f106109165761010080835404028352916020019161093f565b820191905f5260205f20905b81548152906001019060200180831161092257829003601f168201915b5050505050815250509050919050565b5f61095982610dd3565b9050919050565b5f6109696110b6565b5f6007549050610979338261113d565b60405180606001604052808281526020018581526020018481525060085f8381526020019081526020015f205f820151815f015560208201518160010190816109c291906125e4565b5060408201518160020190816109d891906125e4565b5090505060075f8154809291906109ee906126e0565b91905055507f0508f820196a2b92c4bbd740d48c93c17741bfb305d1c06cd8f2d63803dc9626818585604051610a2693929190611efd565b60405180910390a18091505092915050565b5f8073ffffffffffffffffffffffffffffffffffffffff168273ffffffffffffffffffffffffffffffffffffffff1603610aa9575f6040517f89c62b64000000000000000000000000000000000000000000000000000000008152600401610aa09190611e1d565b60405180910390fd5b60035f8373ffffffffffffffffffffffffffffffffffffffff1673ffffffffffffffffffffffffffffffffffffffff1681526020019081526020015f20549050919050565b610af66110b6565b610aff5f61115a565b565b5f60065f9054906101000a900473ffffffffffffffffffffffffffffffffffffffff16905090565b606060018054610b38906123e2565b80601f0160208091040260200160405190810160405280929190818152602001828054610b64906123e2565b8015610baf5780601f10610b8657610100808354040283529160200191610baf565b820191905f5260205f20905b815481529060010190602001808311610b9257829003601f168201915b5050505050905090565b610bcb610bc4610e92565b838361121d565b5050565b610bda8484846105ab565b610be684848484611386565b50505050565b6060610bf782610dd3565b505f610c01611538565b90505f815111610c1f5760405180602001604052805f815250610c4a565b80610c298461154e565b604051602001610c3a929190612761565b6040516020818303038152906040525b915050919050565b60075481565b5f60055f8473ffffffffffffffffffffffffffffffffffffffff1673ffffffffffffffffffffffffffffffffffffffff1681526020019081526020015f205f8373ffffffffffffffffffffffffffffffffffffffff1673ffffffffffffffffffffffffffffffffffffffff1681526020019081526020015f205f9054906101000a900460ff16905092915050565b610cee6110b6565b5f73ffffffffffffffffffffffffffffffffffffffff168173ffffffffffffffffffffffffffffffffffffffff1603610d5e575f6040517f1e4fbdf7000000000000000000000000000000000000000000000000000000008152600401610d559190611e1d565b60405180910390fd5b610d678161115a565b50565b5f7f01ffc9a7000000000000000000000000000000000000000000000000000000007bffffffffffffffffffffffffffffffffffffffffffffffffffffffff1916827bffffffffffffffffffffffffffffffffffffffffffffffffffffffff1916149050919050565b5f80610dde83611618565b90505f73ffffffffffffffffffffffffffffffffffffffff168173ffffffffffffffffffffffffffffffffffffffff1603610e5057826040517f7e273289000000000000000000000000000000000000000000000000000000008152600401610e4791906121ad565b60405180910390fd5b80915050919050565b5f60045f8381526020019081526020015f205f9054906101000a900473ffffffffffffffffffffffffffffffffffffffff169050919050565b5f33905090565b610ea68383836001611651565b505050565b5f80610eb684611618565b90505f73ffffffffffffffffffffffffffffffffffffffff168373ffffffffffffffffffffffffffffffffffffffff1614610ef757610ef6818486611810565b5b5f73ffffffffffffffffffffffffffffffffffffffff168173ffffffffffffffffffffffffffffffffffffffff1614610f8257610f365f855f80611651565b600160035f8373ffffffffffffffffffffffffffffffffffffffff1673ffffffffffffffffffffffffffffffffffffffff1681526020019081526020015f205f82825403925050819055505b5f73ffffffffffffffffffffffffffffffffffffffff168573ffffffffffffffffffffffffffffffffffffffff161461100157600160035f8773ffffffffffffffffffffffffffffffffffffffff1673ffffffffffffffffffffffffffffffffffffffff1681526020019081526020015f205f82825401925050819055505b8460025f8681526020019081526020015f205f6101000a81548173ffffffffffffffffffffffffffffffffffffffff021916908373ffffffffffffffffffffffffffffffffffffffff160217905550838573ffffffffffffffffffffffffffffffffffffffff168273ffffffffffffffffffffffffffffffffffffffff167fddf252ad1be2c89b69c2b068fc378daa952ba7f163c4a11628f55a4df523b3ef60405160405180910390a4809150509392505050565b6110be610e92565b73ffffffffffffffffffffffffffffffffffffffff166110dc610b01565b73ffffffffffffffffffffffffffffffffffffffff161461113b576110ff610e92565b6040517f118cdaa70000000000000000000000000000000000000000000000000000000081526004016111329190611e1d565b60405180910390fd5b565b611156828260405180602001604052805f8152506118d3565b5050565b5f60065f9054906101000a900473ffffffffffffffffffffffffffffffffffffffff1690508160065f6101000a81548173ffffffffffffffffffffffffffffffffffffffff021916908373ffffffffffffffffffffffffffffffffffffffff1602179055508173ffffffffffffffffffffffffffffffffffffffff168173ffffffffffffffffffffffffffffffffffffffff167f8be0079c531659141344cd1fd0a4f28419497f9722a3daafe3b4186f6b6457e060405160405180910390a35050565b5f73ffffffffffffffffffffffffffffffffffffffff168273ffffffffffffffffffffffffffffffffffffffff160361128d57816040517f5b08ba180000000000000000000000000000000000000000000000000000000081526004016112849190611e1d565b60405180910390fd5b8060055f8573ffffffffffffffffffffffffffffffffffffffff1673ffffffffffffffffffffffffffffffffffffffff1681526020019081526020015f205f8473ffffffffffffffffffffffffffffffffffffffff1673ffffffffffffffffffffffffffffffffffffffff1681526020019081526020015f205f6101000a81548160ff0219169083151502179055508173ffffffffffffffffffffffffffffffffffffffff168373ffffffffffffffffffffffffffffffffffffffff167f17307eab39ab6107e8899845ad3d59bd9653f200f220920489ca2b5937696c31836040516113799190611cbd565b60405180910390a3505050565b5f8373ffffffffffffffffffffffffffffffffffffffff163b1115611532578273ffffffffffffffffffffffffffffffffffffffff1663150b7a026113c9610e92565b8685856040518563ffffffff1660e01b81526004016113eb94939291906127d6565b6020604051808303815f875af192505050801561142657506040513d601f19601f820116820180604052508101906114239190612834565b60015b6114a7573d805f8114611454576040519150601f19603f3d011682016040523d82523d5f602084013e611459565b606091505b505f81510361149f57836040517f64a0ae920000000000000000000000000000000000000000000000000000000081526004016114969190611e1d565b60405180910390fd5b805181602001fd5b63150b7a0260e01b7bffffffffffffffffffffffffffffffffffffffffffffffffffffffff1916817bffffffffffffffffffffffffffffffffffffffffffffffffffffffff19161461153057836040517f64a0ae920000000000000000000000000000000000000000000000000000000081526004016115279190611e1d565b60405180910390fd5b505b50505050565b606060405180602001604052805f815250905090565b60605f600161155c846118ee565b0190505f8167ffffffffffffffff81111561157a57611579612013565b5b6040519080825280601f01601f1916602001820160405280156115ac5781602001600182028036833780820191505090505b5090505f82602001820190505b60011561160d578080600190039150507f3031323334353637383961626364656600000000000000000000000000000000600a86061a8153600a85816116025761160161285f565b5b0494505f85036115b9575b819350505050919050565b5f60025f8381526020019081526020015f205f9054906101000a900473ffffffffffffffffffffffffffffffffffffffff169050919050565b808061168957505f73ffffffffffffffffffffffffffffffffffffffff168273ffffffffffffffffffffffffffffffffffffffff1614155b156117bb575f61169884610dd3565b90505f73ffffffffffffffffffffffffffffffffffffffff168373ffffffffffffffffffffffffffffffffffffffff161415801561170257508273ffffffffffffffffffffffffffffffffffffffff168173ffffffffffffffffffffffffffffffffffffffff1614155b801561171557506117138184610c58565b155b1561175757826040517fa9fbf51f00000000000000000000000000000000000000000000000000000000815260040161174e9190611e1d565b60405180910390fd5b81156117b957838573ffffffffffffffffffffffffffffffffffffffff168273ffffffffffffffffffffffffffffffffffffffff167f8c5be1e5ebec7d5bd14f71427d1e84f3dd0314c0f7b2291e5b200ac8c7c3b92560405160405180910390a45b505b8360045f8581526020019081526020015f205f6101000a81548173ffffffffffffffffffffffffffffffffffffffff021916908373ffffffffffffffffffffffffffffffffffffffff16021790555050505050565b61181b838383611a3f565b6118ce575f73ffffffffffffffffffffffffffffffffffffffff168373ffffffffffffffffffffffffffffffffffffffff160361188f57806040517f7e27328900000000000000000000000000000000000000000000000000000000815260040161188691906121ad565b60405180910390fd5b81816040517f177e802f0000000000000000000000000000000000000000000000000000000081526004016118c592919061288c565b60405180910390fd5b505050565b6118dd8383611aff565b6118e95f848484611386565b505050565b5f805f90507a184f03e93ff9f4daa797ed6e38ed64bf6a1f010000000000000000831061194a577a184f03e93ff9f4daa797ed6e38ed64bf6a1f01000000000000000083816119405761193f61285f565b5b0492506040810190505b6d04ee2d6d415b85acef81000000008310611987576d04ee2d6d415b85acef8100000000838161197d5761197c61285f565b5b0492506020810190505b662386f26fc1000083106119b657662386f26fc1000083816119ac576119ab61285f565b5b0492506010810190505b6305f5e10083106119df576305f5e10083816119d5576119d461285f565b5b0492506008810190505b6127108310611a045761271083816119fa576119f961285f565b5b0492506004810190505b60648310611a275760648381611a1d57611a1c61285f565b5b0492506002810190505b600a8310611a36576001810190505b80915050919050565b5f8073ffffffffffffffffffffffffffffffffffffffff168373ffffffffffffffffffffffffffffffffffffffff1614158015611af657508273ffffffffffffffffffffffffffffffffffffffff168473ffffffffffffffffffffffffffffffffffffffff161480611ab75750611ab68484610c58565b5b80611af557508273ffffffffffffffffffffffffffffffffffffffff16611add83610e59565b73ffffffffffffffffffffffffffffffffffffffff16145b5b90509392505050565b5f73ffffffffffffffffffffffffffffffffffffffff168273ffffffffffffffffffffffffffffffffffffffff1603611b6f575f6040517f64a0ae92000000000000000000000000000000000000000000000000000000008152600401611b669190611e1d565b60405180910390fd5b5f611b7b83835f610eab565b90505f73ffffffffffffffffffffffffffffffffffffffff168173ffffffffffffffffffffffffffffffffffffffff1614611bed575f6040517f73c6ac6e000000000000000000000000000000000000000000000000000000008152600401611be49190611e1d565b60405180910390fd5b505050565b60405180606001604052805f815260200160608152602001606081525090565b5f604051905090565b5f80fd5b5f80fd5b5f7fffffffff0000000000000000000000000000000000000000000000000000000082169050919050565b611c5781611c23565b8114611c61575f80fd5b50565b5f81359050611c7281611c4e565b92915050565b5f60208284031215611c8d57611c8c611c1b565b5b5f611c9a84828501611c64565b91505092915050565b5f8115159050919050565b611cb781611ca3565b82525050565b5f602082019050611cd05f830184611cae565b92915050565b5f81519050919050565b5f82825260208201905092915050565b5f5b83811015611d0d578082015181840152602081019050611cf2565b5f8484015250505050565b5f601f19601f8301169050919050565b5f611d3282611cd6565b611d3c8185611ce0565b9350611d4c818560208601611cf0565b611d5581611d18565b840191505092915050565b5f6020820190508181035f830152611d788184611d28565b905092915050565b5f819050919050565b611d9281611d80565b8114611d9c575f80fd5b50565b5f81359050611dad81611d89565b92915050565b5f60208284031215611dc857611dc7611c1b565b5b5f611dd584828501611d9f565b91505092915050565b5f73ffffffffffffffffffffffffffffffffffffffff82169050919050565b5f611e0782611dde565b9050919050565b611e1781611dfd565b82525050565b5f602082019050611e305f830184611e0e565b92915050565b611e3f81611dfd565b8114611e49575f80fd5b50565b5f81359050611e5a81611e36565b92915050565b5f8060408385031215611e7657611e75611c1b565b5b5f611e8385828601611e4c565b9250506020611e9485828601611d9f565b9150509250929050565b5f805f60608486031215611eb557611eb4611c1b565b5b5f611ec286828701611e4c565b9350506020611ed386828701611e4c565b9250506040611ee486828701611d9f565b9150509250925092565b611ef781611d80565b82525050565b5f606082019050611f105f830186611eee565b8181036020830152611f228185611d28565b90508181036040830152611f368184611d28565b9050949350505050565b611f4981611d80565b82525050565b5f82825260208201905092915050565b5f611f6982611cd6565b611f738185611f4f565b9350611f83818560208601611cf0565b611f8c81611d18565b840191505092915050565b5f606083015f830151611fac5f860182611f40565b5060208301518482036020860152611fc48282611f5f565b91505060408301518482036040860152611fde8282611f5f565b9150508091505092915050565b5f6020820190508181035f8301526120038184611f97565b905092915050565b5f80fd5b5f80fd5b7f4e487b71000000000000000000000000000000000000000000000000000000005f52604160045260245ffd5b61204982611d18565b810181811067ffffffffffffffff8211171561206857612067612013565b5b80604052505050565b5f61207a611c12565b90506120868282612040565b919050565b5f67ffffffffffffffff8211156120a5576120a4612013565b5b6120ae82611d18565b9050602081019050919050565b828183375f83830152505050565b5f6120db6120d68461208b565b612071565b9050828152602081018484840111156120f7576120f661200f565b5b6121028482856120bb565b509392505050565b5f82601f83011261211e5761211d61200b565b5b813561212e8482602086016120c9565b91505092915050565b5f806040838503121561214d5761214c611c1b565b5b5f83013567ffffffffffffffff81111561216a57612169611c1f565b5b6121768582860161210a565b925050602083013567ffffffffffffffff81111561219757612196611c1f565b5b6121a38582860161210a565b9150509250929050565b5f6020820190506121c05f830184611eee565b92915050565b5f602082840312156121db576121da611c1b565b5b5f6121e884828501611e4c565b91505092915050565b6121fa81611ca3565b8114612204575f80fd5b50565b5f81359050612215816121f1565b92915050565b5f806040838503121561223157612230611c1b565b5b5f61223e85828601611e4c565b925050602061224f85828601612207565b9150509250929050565b5f67ffffffffffffffff82111561227357612272612013565b5b61227c82611d18565b9050602081019050919050565b5f61229b61229684612259565b612071565b9050828152602081018484840111156122b7576122b661200f565b5b6122c28482856120bb565b509392505050565b5f82601f8301126122de576122dd61200b565b5b81356122ee848260208601612289565b91505092915050565b5f805f806080858703121561230f5761230e611c1b565b5b5f61231c87828801611e4c565b945050602061232d87828801611e4c565b935050604061233e87828801611d9f565b925050606085013567ffffffffffffffff81111561235f5761235e611c1f565b5b61236b878288016122ca565b91505092959194509250565b5f806040838503121561238d5761238c611c1b565b5b5f61239a85828601611e4c565b92505060206123ab85828601611e4c565b9150509250929050565b7f4e487b71000000000000000000000000000000000000000000000000000000005f52602260045260245ffd5b5f60028204905060018216806123f957607f821691505b60208210810361240c5761240b6123b5565b5b50919050565b5f6060820190506124255f830186611e0e565b6124326020830185611eee565b61243f6040830184611e0e565b949350505050565b5f819050815f5260205f209050919050565b5f6020601f8301049050919050565b5f82821b905092915050565b5f600883026124a37fffffffffffffffffffffffffffffffffffffffffffffffffffffffffffffffff82612468565b6124ad8683612468565b95508019841693508086168417925050509392505050565b5f819050919050565b5f6124e86124e36124de84611d80565b6124c5565b611d80565b9050919050565b5f819050919050565b612501836124ce565b61251561250d826124ef565b848454612474565b825550505050565b5f90565b61252961251d565b6125348184846124f8565b505050565b5b818110156125575761254c5f82612521565b60018101905061253a565b5050565b601f82111561259c5761256d81612447565b61257684612459565b81016020851015612585578190505b61259961259185612459565b830182612539565b50505b505050565b5f82821c905092915050565b5f6125bc5f19846008026125a1565b1980831691505092915050565b5f6125d483836125ad565b9150826002028217905092915050565b6125ed82611cd6565b67ffffffffffffffff81111561260657612605612013565b5b61261082546123e2565b61261b82828561255b565b5f60209050601f83116001811461264c575f841561263a578287015190505b61264485826125c9565b8655506126ab565b601f19841661265a86612447565b5f5b828110156126815784890151825560018201915060208501945060208101905061265c565b8683101561269e578489015161269a601f8916826125ad565b8355505b6001600288020188555050505b505050505050565b7f4e487b71000000000000000000000000000000000000000000000000000000005f52601160045260245ffd5b5f6126ea82611d80565b91507fffffffffffffffffffffffffffffffffffffffffffffffffffffffffffffffff820361271c5761271b6126b3565b5b600182019050919050565b5f81905092915050565b5f61273b82611cd6565b6127458185612727565b9350612755818560208601611cf0565b80840191505092915050565b5f61276c8285612731565b91506127788284612731565b91508190509392505050565b5f81519050919050565b5f82825260208201905092915050565b5f6127a882612784565b6127b2818561278e565b93506127c2818560208601611cf0565b6127cb81611d18565b840191505092915050565b5f6080820190506127e95f830187611e0e565b6127f66020830186611e0e565b6128036040830185611eee565b8181036060830152612815818461279e565b905095945050505050565b5f8151905061282e81611c4e565b92915050565b5f6020828403121561284957612848611c1b565b5b5f61285684828501612820565b91505092915050565b7f4e487b71000000000000000000000000000000000000000000000000000000005f52601260045260245ffd5b5f60408201905061289f5f830185611e0e565b6128ac6020830184611eee565b939250505056fea26469706673582212208eec0314891786059a3b40491f77602fa0bc3a0be81040c326b1da74b554048b64736f6c63430008140033",
  "immutableReferences": {},
  "source": "// SPDX-License-Identifier: MIT\r\npragma solidity ^0.8.0;\r\n\r\nimport \"@openzeppelin/contracts/token/ERC721/ERC721.sol\";\r\nimport \"@openzeppelin/contracts/access/Ownable.sol\";\r\n\r\ncontract NFTContract is ERC721, Ownable {\r\n    uint public tokenCounter;\r\n\r\n    struct NFT {\r\n        uint tokenId;\r\n        string description;\r\n        string imageURL;\r\n    }\r\n\r\n    mapping(uint => NFT) public nfts;\r\n\r\n    event NFTCreated(uint tokenId, string description, string imageURL);\r\n\r\n    constructor() ERC721(\"NFTToken\", \"NFT\") Ownable(msg.sender) {\r\n        tokenCounter = 0;\r\n    }\r\n\r\n    function createNFT(string memory _description, string memory _imageURL) public onlyOwner returns (uint) {\r\n        uint newTokenId = tokenCounter;\r\n        _safeMint(msg.sender, newTokenId);\r\n        nfts[newTokenId] = NFT(newTokenId, _description, _imageURL);\r\n        tokenCounter++;\r\n        emit NFTCreated(newTokenId, _description, _imageURL);\r\n        return newTokenId;\r\n    }\r\n\r\n    function getNFT(uint _tokenId) public view returns (NFT memory) {\r\n        return nfts[_tokenId];\r\n    }\r\n}\r\n",
  "sourcePath": "C:\\Users\\ABBEY\\OneDrive\\Documents\\A_Code_Repos\\_Abstract-Code\\decentralized-barter-platform\\backend\\contracts\\NFTContract.sol",
  "compiler": {
    "name": "solc",
    "version": "0.8.20+commit.a1b79de6.Emscripten.clang"
  },
  "schemaVersion": "3.4.16",
  "updatedAt": "2024-07-26T10:38:00.881Z",
  "devdoc": {
    "errors": {
      "ERC721IncorrectOwner(address,uint256,address)": [
        {
          "details": "Indicates an error related to the ownership over a particular token. Used in transfers.",
          "params": {
            "owner": "Address of the current owner of a token.",
            "sender": "Address whose tokens are being transferred.",
            "tokenId": "Identifier number of a token."
          }
        }
      ],
      "ERC721InsufficientApproval(address,uint256)": [
        {
          "details": "Indicates a failure with the `operator`s approval. Used in transfers.",
          "params": {
            "operator": "Address that may be allowed to operate on tokens without being their owner.",
            "tokenId": "Identifier number of a token."
          }
        }
      ],
      "ERC721InvalidApprover(address)": [
        {
          "details": "Indicates a failure with the `approver` of a token to be approved. Used in approvals.",
          "params": {
            "approver": "Address initiating an approval operation."
          }
        }
      ],
      "ERC721InvalidOperator(address)": [
        {
          "details": "Indicates a failure with the `operator` to be approved. Used in approvals.",
          "params": {
            "operator": "Address that may be allowed to operate on tokens without being their owner."
          }
        }
      ],
      "ERC721InvalidOwner(address)": [
        {
          "details": "Indicates that an address can't be an owner. For example, `address(0)` is a forbidden owner in EIP-20. Used in balance queries.",
          "params": {
            "owner": "Address of the current owner of a token."
          }
        }
      ],
      "ERC721InvalidReceiver(address)": [
        {
          "details": "Indicates a failure with the token `receiver`. Used in transfers.",
          "params": {
            "receiver": "Address to which tokens are being transferred."
          }
        }
      ],
      "ERC721InvalidSender(address)": [
        {
          "details": "Indicates a failure with the token `sender`. Used in transfers.",
          "params": {
            "sender": "Address whose tokens are being transferred."
          }
        }
      ],
      "ERC721NonexistentToken(uint256)": [
        {
          "details": "Indicates a `tokenId` whose `owner` is the zero address.",
          "params": {
            "tokenId": "Identifier number of a token."
          }
        }
      ],
      "OwnableInvalidOwner(address)": [
        {
          "details": "The owner is not a valid owner account. (eg. `address(0)`)"
        }
      ],
      "OwnableUnauthorizedAccount(address)": [
        {
          "details": "The caller account is not authorized to perform an operation."
        }
      ]
    },
    "events": {
      "Approval(address,address,uint256)": {
        "details": "Emitted when `owner` enables `approved` to manage the `tokenId` token."
      },
      "ApprovalForAll(address,address,bool)": {
        "details": "Emitted when `owner` enables or disables (`approved`) `operator` to manage all of its assets."
      },
      "Transfer(address,address,uint256)": {
        "details": "Emitted when `tokenId` token is transferred from `from` to `to`."
      }
    },
    "kind": "dev",
    "methods": {
      "approve(address,uint256)": {
        "details": "See {IERC721-approve}."
      },
      "balanceOf(address)": {
        "details": "See {IERC721-balanceOf}."
      },
      "getApproved(uint256)": {
        "details": "See {IERC721-getApproved}."
      },
      "isApprovedForAll(address,address)": {
        "details": "See {IERC721-isApprovedForAll}."
      },
      "name()": {
        "details": "See {IERC721Metadata-name}."
      },
      "owner()": {
        "details": "Returns the address of the current owner."
      },
      "ownerOf(uint256)": {
        "details": "See {IERC721-ownerOf}."
      },
      "renounceOwnership()": {
        "details": "Leaves the contract without owner. It will not be possible to call `onlyOwner` functions. Can only be called by the current owner. NOTE: Renouncing ownership will leave the contract without an owner, thereby disabling any functionality that is only available to the owner."
      },
      "safeTransferFrom(address,address,uint256)": {
        "details": "See {IERC721-safeTransferFrom}."
      },
      "safeTransferFrom(address,address,uint256,bytes)": {
        "details": "See {IERC721-safeTransferFrom}."
      },
      "setApprovalForAll(address,bool)": {
        "details": "See {IERC721-setApprovalForAll}."
      },
      "supportsInterface(bytes4)": {
        "details": "See {IERC165-supportsInterface}."
      },
      "symbol()": {
        "details": "See {IERC721Metadata-symbol}."
      },
      "tokenURI(uint256)": {
        "details": "See {IERC721Metadata-tokenURI}."
      },
      "transferFrom(address,address,uint256)": {
        "details": "See {IERC721-transferFrom}."
      },
      "transferOwnership(address)": {
        "details": "Transfers ownership of the contract to a new account (`newOwner`). Can only be called by the current owner."
      }
    },
    "version": 1
  },
  "userdoc": {
    "kind": "user",
    "methods": {},
    "version": 1
  }
}