{
  "contractName": "TradeContract",
  "abi": [
    {
      "inputs": [],
      "stateMutability": "nonpayable",
      "type": "constructor"
    },
    {
      "anonymous": false,
      "inputs": [
        {
          "indexed": false,
          "internalType": "uint256",
          "name": "id",
          "type": "uint256"
        },
        {
          "indexed": false,
          "internalType": "uint256",
          "name": "nftId",
          "type": "uint256"
        },
        {
          "indexed": false,
          "internalType": "address",
          "name": "owner",
          "type": "address"
        },
        {
          "indexed": false,
          "internalType": "address",
          "name": "counterparty",
          "type": "address"
        },
        {
          "indexed": false,
          "internalType": "string",
          "name": "status",
          "type": "string"
        }
      ],
      "name": "TradeCreated",
      "type": "event"
    },
    {
      "anonymous": false,
      "inputs": [
        {
          "indexed": false,
          "internalType": "uint256",
          "name": "id",
          "type": "uint256"
        },
        {
          "indexed": false,
          "internalType": "string",
          "name": "status",
          "type": "string"
        }
      ],
      "name": "TradeUpdated",
      "type": "event"
    },
    {
      "inputs": [],
      "name": "tradeCounter",
      "outputs": [
        {
          "internalType": "uint256",
          "name": "",
          "type": "uint256"
        }
      ],
      "stateMutability": "view",
      "type": "function"
    },
    {
      "inputs": [
        {
          "internalType": "uint256",
          "name": "",
          "type": "uint256"
        }
      ],
      "name": "trades",
      "outputs": [
        {
          "internalType": "uint256",
          "name": "id",
          "type": "uint256"
        },
        {
          "internalType": "uint256",
          "name": "nftId",
          "type": "uint256"
        },
        {
          "internalType": "address",
          "name": "owner",
          "type": "address"
        },
        {
          "internalType": "address",
          "name": "counterparty",
          "type": "address"
        },
        {
          "internalType": "string",
          "name": "status",
          "type": "string"
        }
      ],
      "stateMutability": "view",
      "type": "function"
    },
    {
      "inputs": [
        {
          "internalType": "uint256",
          "name": "_nftId",
          "type": "uint256"
        },
        {
          "internalType": "address",
          "name": "_counterparty",
          "type": "address"
        }
      ],
      "name": "createTrade",
      "outputs": [],
      "stateMutability": "nonpayable",
      "type": "function"
    },
    {
      "inputs": [
        {
          "internalType": "uint256",
          "name": "_id",
          "type": "uint256"
        },
        {
          "internalType": "string",
          "name": "_status",
          "type": "string"
        }
      ],
      "name": "updateTrade",
      "outputs": [],
      "stateMutability": "nonpayable",
      "type": "function"
    },
    {
      "inputs": [
        {
          "internalType": "uint256",
          "name": "_id",
          "type": "uint256"
        }
      ],
      "name": "getTrade",
      "outputs": [
        {
          "components": [
            {
              "internalType": "uint256",
              "name": "id",
              "type": "uint256"
            },
            {
              "internalType": "uint256",
              "name": "nftId",
              "type": "uint256"
            },
            {
              "internalType": "address",
              "name": "owner",
              "type": "address"
            },
            {
              "internalType": "address",
              "name": "counterparty",
              "type": "address"
            },
            {
              "internalType": "string",
              "name": "status",
              "type": "string"
            }
          ],
          "internalType": "struct TradeContract.Trade",
          "name": "",
          "type": "tuple"
        }
      ],
      "stateMutability": "view",
      "type": "function"
    },
    {
      "inputs": [],
      "name": "getAllTrades",
      "outputs": [
        {
          "components": [
            {
              "internalType": "uint256",
              "name": "id",
              "type": "uint256"
            },
            {
              "internalType": "uint256",
              "name": "nftId",
              "type": "uint256"
            },
            {
              "internalType": "address",
              "name": "owner",
              "type": "address"
            },
            {
              "internalType": "address",
              "name": "counterparty",
              "type": "address"
            },
            {
              "internalType": "string",
              "name": "status",
              "type": "string"
            }
          ],
          "internalType": "struct TradeContract.Trade[]",
          "name": "",
          "type": "tuple[]"
        }
      ],
      "stateMutability": "view",
      "type": "function"
    }
  ],
  "bytecode": "0x608060405234801561000f575f80fd5b505f8081905550611430806100235f395ff3fe608060405234801561000f575f80fd5b5060043610610060575f3560e01c80631e6c598e146100645780632db25e05146100985780634583b77d146100c8578063660d15b5146100e4578063ce99c0ce14610102578063e8f003f514610120575b5f80fd5b61007e60048036038101906100799190610958565b61013c565b60405161008f959493929190610a5b565b60405180910390f35b6100b260048036038101906100ad9190610958565b610232565b6040516100bf9190610b8c565b60405180910390f35b6100e260048036038101906100dd9190610bd6565b6103aa565b005b6100ec610554565b6040516100f99190610c14565b60405180910390f35b61010a610559565b6040516101179190610d5b565b60405180910390f35b61013a60048036038101906101359190610ea7565b61076f565b005b6001602052805f5260405f205f91509050805f015490806001015490806002015f9054906101000a900473ffffffffffffffffffffffffffffffffffffffff1690806003015f9054906101000a900473ffffffffffffffffffffffffffffffffffffffff16908060040180546101b190610f2e565b80601f01602080910402602001604051908101604052809291908181526020018280546101dd90610f2e565b80156102285780601f106101ff57610100808354040283529160200191610228565b820191905f5260205f20905b81548152906001019060200180831161020b57829003601f168201915b5050505050905085565b61023a6108bd565b60015f8381526020019081526020015f206040518060a00160405290815f820154815260200160018201548152602001600282015f9054906101000a900473ffffffffffffffffffffffffffffffffffffffff1673ffffffffffffffffffffffffffffffffffffffff1673ffffffffffffffffffffffffffffffffffffffff168152602001600382015f9054906101000a900473ffffffffffffffffffffffffffffffffffffffff1673ffffffffffffffffffffffffffffffffffffffff1673ffffffffffffffffffffffffffffffffffffffff16815260200160048201805461032390610f2e565b80601f016020809104026020016040519081016040528092919081815260200182805461034f90610f2e565b801561039a5780601f106103715761010080835404028352916020019161039a565b820191905f5260205f20905b81548152906001019060200180831161037d57829003601f168201915b5050505050815250509050919050565b5f808154809291906103bb90610f8b565b91905055506040518060a001604052805f5481526020018381526020013373ffffffffffffffffffffffffffffffffffffffff1681526020018273ffffffffffffffffffffffffffffffffffffffff1681526020016040518060400160405280600981526020017f696e69746961746564000000000000000000000000000000000000000000000081525081525060015f805481526020019081526020015f205f820151815f0155602082015181600101556040820151816002015f6101000a81548173ffffffffffffffffffffffffffffffffffffffff021916908373ffffffffffffffffffffffffffffffffffffffff1602179055506060820151816003015f6101000a81548173ffffffffffffffffffffffffffffffffffffffff021916908373ffffffffffffffffffffffffffffffffffffffff160217905550608082015181600401908161050e919061116f565b509050507fea5646d7a8813d083dc53effeffdcb1582cd7b869d6cb14e14d30d3bb4601af85f548333846040516105489493929190611288565b60405180910390a15050565b5f5481565b60605f805467ffffffffffffffff81111561057757610576610d83565b5b6040519080825280602002602001820160405280156105b057816020015b61059d6108bd565b8152602001906001900390816105955790505b5090505f600190505b5f5481116107675760015f8281526020019081526020015f206040518060a00160405290815f820154815260200160018201548152602001600282015f9054906101000a900473ffffffffffffffffffffffffffffffffffffffff1673ffffffffffffffffffffffffffffffffffffffff1673ffffffffffffffffffffffffffffffffffffffff168152602001600382015f9054906101000a900473ffffffffffffffffffffffffffffffffffffffff1673ffffffffffffffffffffffffffffffffffffffff1673ffffffffffffffffffffffffffffffffffffffff1681526020016004820180546106aa90610f2e565b80601f01602080910402602001604051908101604052809291908181526020018280546106d690610f2e565b80156107215780601f106106f857610100808354040283529160200191610721565b820191905f5260205f20905b81548152906001019060200180831161070457829003601f168201915b5050505050815250508260018361073891906112de565b8151811061074957610748611311565b5b6020026020010181905250808061075f90610f8b565b9150506105b9565b508091505090565b5f60015f8481526020019081526020015f209050806002015f9054906101000a900473ffffffffffffffffffffffffffffffffffffffff1673ffffffffffffffffffffffffffffffffffffffff163373ffffffffffffffffffffffffffffffffffffffff16148061082e5750806003015f9054906101000a900473ffffffffffffffffffffffffffffffffffffffff1673ffffffffffffffffffffffffffffffffffffffff163373ffffffffffffffffffffffffffffffffffffffff16145b61086d576040517f08c379a0000000000000000000000000000000000000000000000000000000008152600401610864906113ae565b60405180910390fd5b8181600401908161087e919061116f565b507f3724e500c0a5c8a7e8bd9fb899188409506f302a8f56881dba2a50690735c4a683836040516108b09291906113cc565b60405180910390a1505050565b6040518060a001604052805f81526020015f81526020015f73ffffffffffffffffffffffffffffffffffffffff1681526020015f73ffffffffffffffffffffffffffffffffffffffff168152602001606081525090565b5f604051905090565b5f80fd5b5f80fd5b5f819050919050565b61093781610925565b8114610941575f80fd5b50565b5f813590506109528161092e565b92915050565b5f6020828403121561096d5761096c61091d565b5b5f61097a84828501610944565b91505092915050565b61098c81610925565b82525050565b5f73ffffffffffffffffffffffffffffffffffffffff82169050919050565b5f6109bb82610992565b9050919050565b6109cb816109b1565b82525050565b5f81519050919050565b5f82825260208201905092915050565b5f5b83811015610a085780820151818401526020810190506109ed565b5f8484015250505050565b5f601f19601f8301169050919050565b5f610a2d826109d1565b610a3781856109db565b9350610a478185602086016109eb565b610a5081610a13565b840191505092915050565b5f60a082019050610a6e5f830188610983565b610a7b6020830187610983565b610a8860408301866109c2565b610a9560608301856109c2565b8181036080830152610aa78184610a23565b90509695505050505050565b610abc81610925565b82525050565b610acb816109b1565b82525050565b5f82825260208201905092915050565b5f610aeb826109d1565b610af58185610ad1565b9350610b058185602086016109eb565b610b0e81610a13565b840191505092915050565b5f60a083015f830151610b2e5f860182610ab3565b506020830151610b416020860182610ab3565b506040830151610b546040860182610ac2565b506060830151610b676060860182610ac2565b5060808301518482036080860152610b7f8282610ae1565b9150508091505092915050565b5f6020820190508181035f830152610ba48184610b19565b905092915050565b610bb5816109b1565b8114610bbf575f80fd5b50565b5f81359050610bd081610bac565b92915050565b5f8060408385031215610bec57610beb61091d565b5b5f610bf985828601610944565b9250506020610c0a85828601610bc2565b9150509250929050565b5f602082019050610c275f830184610983565b92915050565b5f81519050919050565b5f82825260208201905092915050565b5f819050602082019050919050565b5f60a083015f830151610c6b5f860182610ab3565b506020830151610c7e6020860182610ab3565b506040830151610c916040860182610ac2565b506060830151610ca46060860182610ac2565b5060808301518482036080860152610cbc8282610ae1565b9150508091505092915050565b5f610cd48383610c56565b905092915050565b5f602082019050919050565b5f610cf282610c2d565b610cfc8185610c37565b935083602082028501610d0e85610c47565b805f5b85811015610d495784840389528151610d2a8582610cc9565b9450610d3583610cdc565b925060208a01995050600181019050610d11565b50829750879550505050505092915050565b5f6020820190508181035f830152610d738184610ce8565b905092915050565b5f80fd5b5f80fd5b7f4e487b71000000000000000000000000000000000000000000000000000000005f52604160045260245ffd5b610db982610a13565b810181811067ffffffffffffffff82111715610dd857610dd7610d83565b5b80604052505050565b5f610dea610914565b9050610df68282610db0565b919050565b5f67ffffffffffffffff821115610e1557610e14610d83565b5b610e1e82610a13565b9050602081019050919050565b828183375f83830152505050565b5f610e4b610e4684610dfb565b610de1565b905082815260208101848484011115610e6757610e66610d7f565b5b610e72848285610e2b565b509392505050565b5f82601f830112610e8e57610e8d610d7b565b5b8135610e9e848260208601610e39565b91505092915050565b5f8060408385031215610ebd57610ebc61091d565b5b5f610eca85828601610944565b925050602083013567ffffffffffffffff811115610eeb57610eea610921565b5b610ef785828601610e7a565b9150509250929050565b7f4e487b71000000000000000000000000000000000000000000000000000000005f52602260045260245ffd5b5f6002820490506001821680610f4557607f821691505b602082108103610f5857610f57610f01565b5b50919050565b7f4e487b71000000000000000000000000000000000000000000000000000000005f52601160045260245ffd5b5f610f9582610925565b91507fffffffffffffffffffffffffffffffffffffffffffffffffffffffffffffffff8203610fc757610fc6610f5e565b5b600182019050919050565b5f819050815f5260205f209050919050565b5f6020601f8301049050919050565b5f82821b905092915050565b5f6008830261102e7fffffffffffffffffffffffffffffffffffffffffffffffffffffffffffffffff82610ff3565b6110388683610ff3565b95508019841693508086168417925050509392505050565b5f819050919050565b5f61107361106e61106984610925565b611050565b610925565b9050919050565b5f819050919050565b61108c83611059565b6110a06110988261107a565b848454610fff565b825550505050565b5f90565b6110b46110a8565b6110bf818484611083565b505050565b5b818110156110e2576110d75f826110ac565b6001810190506110c5565b5050565b601f821115611127576110f881610fd2565b61110184610fe4565b81016020851015611110578190505b61112461111c85610fe4565b8301826110c4565b50505b505050565b5f82821c905092915050565b5f6111475f198460080261112c565b1980831691505092915050565b5f61115f8383611138565b9150826002028217905092915050565b611178826109d1565b67ffffffffffffffff81111561119157611190610d83565b5b61119b8254610f2e565b6111a68282856110e6565b5f60209050601f8311600181146111d7575f84156111c5578287015190505b6111cf8582611154565b865550611236565b601f1984166111e586610fd2565b5f5b8281101561120c578489015182556001820191506020850194506020810190506111e7565b868310156112295784890151611225601f891682611138565b8355505b6001600288020188555050505b505050505050565b7f696e6974696174656400000000000000000000000000000000000000000000005f82015250565b5f6112726009836109db565b915061127d8261123e565b602082019050919050565b5f60a08201905061129b5f830187610983565b6112a86020830186610983565b6112b560408301856109c2565b6112c260608301846109c2565b81810360808301526112d381611266565b905095945050505050565b5f6112e882610925565b91506112f383610925565b925082820390508181111561130b5761130a610f5e565b5b92915050565b7f4e487b71000000000000000000000000000000000000000000000000000000005f52603260045260245ffd5b7f4f6e6c79207061727469636970616e74732063616e20757064617465207468655f8201527f2074726164650000000000000000000000000000000000000000000000000000602082015250565b5f6113986026836109db565b91506113a38261133e565b604082019050919050565b5f6020820190508181035f8301526113c58161138c565b9050919050565b5f6040820190506113df5f830185610983565b81810360208301526113f18184610a23565b9050939250505056fea26469706673582212206a3c166dbf0131617901ee129cf679e322d5bf3c6a1103aebae50f387054bbef64736f6c63430008140033",
  "immutableReferences": {},
  "source": "// SPDX-License-Identifier: MIT\r\npragma solidity ^0.8.0;\r\n\r\ncontract TradeContract {\r\n    struct Trade {\r\n        uint id;\r\n        uint nftId;\r\n        address owner;\r\n        address counterparty;\r\n        string status;\r\n    }\r\n\r\n    uint public tradeCounter;\r\n    mapping(uint => Trade) public trades;\r\n\r\n    event TradeCreated(uint id, uint nftId, address owner, address counterparty, string status);\r\n    event TradeUpdated(uint id, string status);\r\n\r\n    constructor() {\r\n        tradeCounter = 0;\r\n    }\r\n\r\n    function createTrade(uint _nftId, address _counterparty) public {\r\n        tradeCounter++;\r\n        trades[tradeCounter] = Trade(tradeCounter, _nftId, msg.sender, _counterparty, \"initiated\");\r\n        emit TradeCreated(tradeCounter, _nftId, msg.sender, _counterparty, \"initiated\");\r\n    }\r\n\r\n    function updateTrade(uint _id, string memory _status) public {\r\n        Trade storage trade = trades[_id];\r\n        require(msg.sender == trade.owner || msg.sender == trade.counterparty, \"Only participants can update the trade\");\r\n        trade.status = _status;\r\n        emit TradeUpdated(_id, _status);\r\n    }\r\n\r\n    function getTrade(uint _id) public view returns (Trade memory) {\r\n        return trades[_id];\r\n    }\r\n\r\n    function getAllTrades() public view returns (Trade[] memory) {\r\n        Trade[] memory tradeList = new Trade[](tradeCounter);\r\n        for (uint i = 1; i <= tradeCounter; i++) {\r\n            tradeList[i - 1] = trades[i];\r\n        }\r\n        return tradeList;\r\n    }\r\n}",
  "sourcePath": "C:\\Users\\ABBEY\\OneDrive\\Documents\\A_Code_Repos\\_Abstract-Code\\decentralized-barter-platform\\backend\\contracts\\TradeContract.sol",
  "compiler": {
    "name": "solc",
    "version": "0.8.20+commit.a1b79de6.Emscripten.clang"
  },
  "schemaVersion": "3.4.16",
  "updatedAt": "2024-07-26T10:38:00.920Z",
  "devdoc": {
    "kind": "dev",
    "methods": {},
    "version": 1
  },
  "userdoc": {
    "kind": "user",
    "methods": {},
    "version": 1
  }
}