{
  "_format": "hh-sol-artifact-1",
  "contractName": "NFTMarketplace",
  "sourceName": "contracts/NFTMarketplace.sol",
  "abi": [
    {
      "inputs": [],
      "stateMutability": "nonpayable",
      "type": "constructor"
    },
    {
      "inputs": [
        {
          "internalType": "address",
          "name": "sender",
          "type": "address"
        },
        {
          "internalType": "uint256",
          "name": "tokenId",
          "type": "uint256"
        },
        {
          "internalType": "address",
          "name": "owner",
          "type": "address"
        }
      ],
      "name": "ERC721IncorrectOwner",
      "type": "error"
    },
    {
      "inputs": [
        {
          "internalType": "address",
          "name": "operator",
          "type": "address"
        },
        {
          "internalType": "uint256",
          "name": "tokenId",
          "type": "uint256"
        }
      ],
      "name": "ERC721InsufficientApproval",
      "type": "error"
    },
    {
      "inputs": [
        {
          "internalType": "address",
          "name": "approver",
          "type": "address"
        }
      ],
      "name": "ERC721InvalidApprover",
      "type": "error"
    },
    {
      "inputs": [
        {
          "internalType": "address",
          "name": "operator",
          "type": "address"
        }
      ],
      "name": "ERC721InvalidOperator",
      "type": "error"
    },
    {
      "inputs": [
        {
          "internalType": "address",
          "name": "owner",
          "type": "address"
        }
      ],
      "name": "ERC721InvalidOwner",
      "type": "error"
    },
    {
      "inputs": [
        {
          "internalType": "address",
          "name": "receiver",
          "type": "address"
        }
      ],
      "name": "ERC721InvalidReceiver",
      "type": "error"
    },
    {
      "inputs": [
        {
          "internalType": "address",
          "name": "sender",
          "type": "address"
        }
      ],
      "name": "ERC721InvalidSender",
      "type": "error"
    },
    {
      "inputs": [
        {
          "internalType": "uint256",
          "name": "tokenId",
          "type": "uint256"
        }
      ],
      "name": "ERC721NonexistentToken",
      "type": "error"
    },
    {
      "anonymous": false,
      "inputs": [
        {
          "indexed": true,
          "internalType": "address",
          "name": "owner",
          "type": "address"
        },
        {
          "indexed": true,
          "internalType": "address",
          "name": "approved",
          "type": "address"
        },
        {
          "indexed": true,
          "internalType": "uint256",
          "name": "tokenId",
          "type": "uint256"
        }
      ],
      "name": "Approval",
      "type": "event"
    },
    {
      "anonymous": false,
      "inputs": [
        {
          "indexed": true,
          "internalType": "address",
          "name": "owner",
          "type": "address"
        },
        {
          "indexed": true,
          "internalType": "address",
          "name": "operator",
          "type": "address"
        },
        {
          "indexed": false,
          "internalType": "bool",
          "name": "approved",
          "type": "bool"
        }
      ],
      "name": "ApprovalForAll",
      "type": "event"
    },
    {
      "anonymous": false,
      "inputs": [
        {
          "indexed": true,
          "internalType": "uint256",
          "name": "tokenId",
          "type": "uint256"
        },
        {
          "indexed": false,
          "internalType": "address",
          "name": "owner",
          "type": "address"
        },
        {
          "indexed": false,
          "internalType": "uint256",
          "name": "desiredTokenId",
          "type": "uint256"
        },
        {
          "indexed": false,
          "internalType": "bool",
          "name": "available",
          "type": "bool"
        }
      ],
      "name": "BarterItemCreated",
      "type": "event"
    },
    {
      "anonymous": false,
      "inputs": [
        {
          "indexed": true,
          "internalType": "uint256",
          "name": "tokenId1",
          "type": "uint256"
        },
        {
          "indexed": false,
          "internalType": "address",
          "name": "owner1",
          "type": "address"
        },
        {
          "indexed": true,
          "internalType": "uint256",
          "name": "tokenId2",
          "type": "uint256"
        },
        {
          "indexed": false,
          "internalType": "address",
          "name": "owner2",
          "type": "address"
        }
      ],
      "name": "BarterTradeCompleted",
      "type": "event"
    },
    {
      "anonymous": false,
      "inputs": [
        {
          "indexed": false,
          "internalType": "uint256",
          "name": "_fromTokenId",
          "type": "uint256"
        },
        {
          "indexed": false,
          "internalType": "uint256",
          "name": "_toTokenId",
          "type": "uint256"
        }
      ],
      "name": "BatchMetadataUpdate",
      "type": "event"
    },
    {
      "anonymous": false,
      "inputs": [
        {
          "indexed": true,
          "internalType": "uint256",
          "name": "tokenId",
          "type": "uint256"
        },
        {
          "indexed": false,
          "internalType": "address",
          "name": "seller",
          "type": "address"
        },
        {
          "indexed": false,
          "internalType": "address",
          "name": "owner",
          "type": "address"
        },
        {
          "indexed": false,
          "internalType": "uint256",
          "name": "price",
          "type": "uint256"
        },
        {
          "indexed": false,
          "internalType": "bool",
          "name": "sold",
          "type": "bool"
        }
      ],
      "name": "MarketItemCreated",
      "type": "event"
    },
    {
      "anonymous": false,
      "inputs": [
        {
          "indexed": false,
          "internalType": "uint256",
          "name": "_tokenId",
          "type": "uint256"
        }
      ],
      "name": "MetadataUpdate",
      "type": "event"
    },
    {
      "anonymous": false,
      "inputs": [
        {
          "indexed": true,
          "internalType": "address",
          "name": "from",
          "type": "address"
        },
        {
          "indexed": true,
          "internalType": "address",
          "name": "to",
          "type": "address"
        },
        {
          "indexed": true,
          "internalType": "uint256",
          "name": "tokenId",
          "type": "uint256"
        }
      ],
      "name": "Transfer",
      "type": "event"
    },
    {
      "inputs": [
        {
          "internalType": "uint256",
          "name": "offeredTokenId",
          "type": "uint256"
        },
        {
          "internalType": "uint256",
          "name": "desiredTokenId",
          "type": "uint256"
        }
      ],
      "name": "acceptBarterTrade",
      "outputs": [],
      "stateMutability": "nonpayable",
      "type": "function"
    },
    {
      "inputs": [
        {
          "internalType": "address",
          "name": "to",
          "type": "address"
        },
        {
          "internalType": "uint256",
          "name": "tokenId",
          "type": "uint256"
        }
      ],
      "name": "approve",
      "outputs": [],
      "stateMutability": "nonpayable",
      "type": "function"
    },
    {
      "inputs": [
        {
          "internalType": "address",
          "name": "owner",
          "type": "address"
        }
      ],
      "name": "balanceOf",
      "outputs": [
        {
          "internalType": "uint256",
          "name": "",
          "type": "uint256"
        }
      ],
      "stateMutability": "view",
      "type": "function"
    },
    {
      "inputs": [
        {
          "internalType": "uint256",
          "name": "tokenId",
          "type": "uint256"
        }
      ],
      "name": "createMarketSale",
      "outputs": [],
      "stateMutability": "payable",
      "type": "function"
    },
    {
      "inputs": [
        {
          "internalType": "string",
          "name": "tokenURI",
          "type": "string"
        },
        {
          "internalType": "uint256",
          "name": "price",
          "type": "uint256"
        }
      ],
      "name": "createToken",
      "outputs": [
        {
          "internalType": "uint256",
          "name": "",
          "type": "uint256"
        }
      ],
      "stateMutability": "payable",
      "type": "function"
    },
    {
      "inputs": [],
      "name": "fetchItemsListed",
      "outputs": [
        {
          "components": [
            {
              "internalType": "uint256",
              "name": "tokenId",
              "type": "uint256"
            },
            {
              "internalType": "address payable",
              "name": "seller",
              "type": "address"
            },
            {
              "internalType": "address payable",
              "name": "owner",
              "type": "address"
            },
            {
              "internalType": "uint256",
              "name": "price",
              "type": "uint256"
            },
            {
              "internalType": "bool",
              "name": "sold",
              "type": "bool"
            }
          ],
          "internalType": "struct NFTMarketplace.MarketItem[]",
          "name": "",
          "type": "tuple[]"
        }
      ],
      "stateMutability": "view",
      "type": "function"
    },
    {
      "inputs": [],
      "name": "fetchMarketItems",
      "outputs": [
        {
          "components": [
            {
              "internalType": "uint256",
              "name": "tokenId",
              "type": "uint256"
            },
            {
              "internalType": "address payable",
              "name": "seller",
              "type": "address"
            },
            {
              "internalType": "address payable",
              "name": "owner",
              "type": "address"
            },
            {
              "internalType": "uint256",
              "name": "price",
              "type": "uint256"
            },
            {
              "internalType": "bool",
              "name": "sold",
              "type": "bool"
            }
          ],
          "internalType": "struct NFTMarketplace.MarketItem[]",
          "name": "",
          "type": "tuple[]"
        }
      ],
      "stateMutability": "view",
      "type": "function"
    },
    {
      "inputs": [],
      "name": "fetchMyNFTs",
      "outputs": [
        {
          "components": [
            {
              "internalType": "uint256",
              "name": "tokenId",
              "type": "uint256"
            },
            {
              "internalType": "address payable",
              "name": "seller",
              "type": "address"
            },
            {
              "internalType": "address payable",
              "name": "owner",
              "type": "address"
            },
            {
              "internalType": "uint256",
              "name": "price",
              "type": "uint256"
            },
            {
              "internalType": "bool",
              "name": "sold",
              "type": "bool"
            }
          ],
          "internalType": "struct NFTMarketplace.MarketItem[]",
          "name": "",
          "type": "tuple[]"
        }
      ],
      "stateMutability": "view",
      "type": "function"
    },
    {
      "inputs": [
        {
          "internalType": "uint256",
          "name": "tokenId",
          "type": "uint256"
        }
      ],
      "name": "getApproved",
      "outputs": [
        {
          "internalType": "address",
          "name": "",
          "type": "address"
        }
      ],
      "stateMutability": "view",
      "type": "function"
    },
    {
      "inputs": [],
      "name": "getListingPrice",
      "outputs": [
        {
          "internalType": "uint256",
          "name": "",
          "type": "uint256"
        }
      ],
      "stateMutability": "view",
      "type": "function"
    },
    {
      "inputs": [
        {
          "internalType": "address",
          "name": "owner",
          "type": "address"
        },
        {
          "internalType": "address",
          "name": "operator",
          "type": "address"
        }
      ],
      "name": "isApprovedForAll",
      "outputs": [
        {
          "internalType": "bool",
          "name": "",
          "type": "bool"
        }
      ],
      "stateMutability": "view",
      "type": "function"
    },
    {
      "inputs": [
        {
          "internalType": "uint256",
          "name": "tokenId",
          "type": "uint256"
        },
        {
          "internalType": "uint256",
          "name": "desiredTokenId",
          "type": "uint256"
        }
      ],
      "name": "listForBarter",
      "outputs": [],
      "stateMutability": "nonpayable",
      "type": "function"
    },
    {
      "inputs": [],
      "name": "listingPrice",
      "outputs": [
        {
          "internalType": "uint256",
          "name": "",
          "type": "uint256"
        }
      ],
      "stateMutability": "view",
      "type": "function"
    },
    {
      "inputs": [],
      "name": "name",
      "outputs": [
        {
          "internalType": "string",
          "name": "",
          "type": "string"
        }
      ],
      "stateMutability": "view",
      "type": "function"
    },
    {
      "inputs": [],
      "name": "owner",
      "outputs": [
        {
          "internalType": "address payable",
          "name": "",
          "type": "address"
        }
      ],
      "stateMutability": "view",
      "type": "function"
    },
    {
      "inputs": [
        {
          "internalType": "uint256",
          "name": "tokenId",
          "type": "uint256"
        }
      ],
      "name": "ownerOf",
      "outputs": [
        {
          "internalType": "address",
          "name": "",
          "type": "address"
        }
      ],
      "stateMutability": "view",
      "type": "function"
    },
    {
      "inputs": [
        {
          "internalType": "uint256",
          "name": "tokenId",
          "type": "uint256"
        },
        {
          "internalType": "uint256",
          "name": "price",
          "type": "uint256"
        }
      ],
      "name": "resellToken",
      "outputs": [],
      "stateMutability": "payable",
      "type": "function"
    },
    {
      "inputs": [
        {
          "internalType": "address",
          "name": "from",
          "type": "address"
        },
        {
          "internalType": "address",
          "name": "to",
          "type": "address"
        },
        {
          "internalType": "uint256",
          "name": "tokenId",
          "type": "uint256"
        }
      ],
      "name": "safeTransferFrom",
      "outputs": [],
      "stateMutability": "nonpayable",
      "type": "function"
    },
    {
      "inputs": [
        {
          "internalType": "address",
          "name": "from",
          "type": "address"
        },
        {
          "internalType": "address",
          "name": "to",
          "type": "address"
        },
        {
          "internalType": "uint256",
          "name": "tokenId",
          "type": "uint256"
        },
        {
          "internalType": "bytes",
          "name": "data",
          "type": "bytes"
        }
      ],
      "name": "safeTransferFrom",
      "outputs": [],
      "stateMutability": "nonpayable",
      "type": "function"
    },
    {
      "inputs": [
        {
          "internalType": "address",
          "name": "operator",
          "type": "address"
        },
        {
          "internalType": "bool",
          "name": "approved",
          "type": "bool"
        }
      ],
      "name": "setApprovalForAll",
      "outputs": [],
      "stateMutability": "nonpayable",
      "type": "function"
    },
    {
      "inputs": [
        {
          "internalType": "bytes4",
          "name": "interfaceId",
          "type": "bytes4"
        }
      ],
      "name": "supportsInterface",
      "outputs": [
        {
          "internalType": "bool",
          "name": "",
          "type": "bool"
        }
      ],
      "stateMutability": "view",
      "type": "function"
    },
    {
      "inputs": [],
      "name": "symbol",
      "outputs": [
        {
          "internalType": "string",
          "name": "",
          "type": "string"
        }
      ],
      "stateMutability": "view",
      "type": "function"
    },
    {
      "inputs": [
        {
          "internalType": "uint256",
          "name": "tokenId",
          "type": "uint256"
        }
      ],
      "name": "tokenURI",
      "outputs": [
        {
          "internalType": "string",
          "name": "",
          "type": "string"
        }
      ],
      "stateMutability": "view",
      "type": "function"
    },
    {
      "inputs": [
        {
          "internalType": "address",
          "name": "from",
          "type": "address"
        },
        {
          "internalType": "address",
          "name": "to",
          "type": "address"
        },
        {
          "internalType": "uint256",
          "name": "tokenId",
          "type": "uint256"
        }
      ],
      "name": "transferFrom",
      "outputs": [],
      "stateMutability": "nonpayable",
      "type": "function"
    },
    {
      "inputs": [
        {
          "internalType": "uint256",
          "name": "_listingPrice",
          "type": "uint256"
        }
      ],
      "name": "updateListingPrice",
      "outputs": [],
      "stateMutability": "nonpayable",
      "type": "function"
    }
  ],
  "bytecode": "0x60806040526601c6bf526340006009553480156200001c57600080fd5b506040518060400160405280601381526020017f4e4654204d657461766572736520546f6b656e000000000000000000000000008152506040518060400160405280600581526020017f4d594e465400000000000000000000000000000000000000000000000000000081525081600090816200009a919062000370565b508060019081620000ac919062000370565b50505033600a60006101000a81548173ffffffffffffffffffffffffffffffffffffffff021916908373ffffffffffffffffffffffffffffffffffffffff16021790555062000457565b600081519050919050565b7f4e487b7100000000000000000000000000000000000000000000000000000000600052604160045260246000fd5b7f4e487b7100000000000000000000000000000000000000000000000000000000600052602260045260246000fd5b600060028204905060018216806200017857607f821691505b6020821081036200018e576200018d62000130565b5b50919050565b60008190508160005260206000209050919050565b60006020601f8301049050919050565b600082821b905092915050565b600060088302620001f87fffffffffffffffffffffffffffffffffffffffffffffffffffffffffffffffff82620001b9565b620002048683620001b9565b95508019841693508086168417925050509392505050565b6000819050919050565b6000819050919050565b6000620002516200024b62000245846200021c565b62000226565b6200021c565b9050919050565b6000819050919050565b6200026d8362000230565b620002856200027c8262000258565b848454620001c6565b825550505050565b600090565b6200029c6200028d565b620002a981848462000262565b505050565b5b81811015620002d157620002c560008262000292565b600181019050620002af565b5050565b601f8211156200032057620002ea8162000194565b620002f584620001a9565b8101602085101562000305578190505b6200031d6200031485620001a9565b830182620002ae565b50505b505050565b600082821c905092915050565b6000620003456000198460080262000325565b1980831691505092915050565b600062000360838362000332565b9150826002028217905092915050565b6200037b82620000f6565b67ffffffffffffffff81111562000397576200039662000101565b5b620003a382546200015f565b620003b0828285620002d5565b600060209050601f831160018114620003e85760008415620003d3578287015190505b620003df858262000352565b8655506200044f565b601f198416620003f88662000194565b60005b828110156200042257848901518255600182019150602085019450602081019050620003fb565b868310156200044257848901516200043e601f89168262000332565b8355505b6001600288020188555050505b505050505050565b61440280620004676000396000f3fe6080604052600436106101665760003560e01c806370a08231116100d1578063ae677aa31161008a578063c78f19f911610064578063c78f19f914610520578063c87b56dd1461054b578063e219fc7514610588578063e985e9c5146105a457610166565b8063ae677aa3146104b2578063b88d4fde146104db578063be9af5361461050457610166565b806370a082311461039d57806372b3b620146103da5780638da5cb5b1461040a57806395d89b4114610435578063a22cb46514610460578063ab386a011461048957610166565b806312e855851161012357806312e855851461028d578063202e3740146102b857806323b872dd146102e357806342842e0e1461030c57806345f8fa80146103355780636352211e1461036057610166565b806301ffc9a71461016b57806306fdde03146101a8578063081812fc146101d357806308772a9514610210578063095ea7b3146102395780630f08efe014610262575b600080fd5b34801561017757600080fd5b50610192600480360381019061018d9190613042565b6105e1565b60405161019f919061308a565b60405180910390f35b3480156101b457600080fd5b506101bd610642565b6040516101ca9190613135565b60405180910390f35b3480156101df57600080fd5b506101fa60048036038101906101f5919061318d565b6106d4565b60405161020791906131fb565b60405180910390f35b34801561021c57600080fd5b5061023760048036038101906102329190613216565b6106f0565b005b34801561024557600080fd5b50610260600480360381019061025b9190613282565b61093c565b005b34801561026e57600080fd5b50610277610952565b6040516102849190613418565b60405180910390f35b34801561029957600080fd5b506102a2610bb4565b6040516102af9190613449565b60405180910390f35b3480156102c457600080fd5b506102cd610bbe565b6040516102da9190613418565b60405180910390f35b3480156102ef57600080fd5b5061030a60048036038101906103059190613464565b610e9e565b005b34801561031857600080fd5b50610333600480360381019061032e9190613464565b610fa0565b005b34801561034157600080fd5b5061034a610fc0565b6040516103579190613418565b60405180910390f35b34801561036c57600080fd5b506103876004803603810190610382919061318d565b6112a0565b60405161039491906131fb565b60405180910390f35b3480156103a957600080fd5b506103c460048036038101906103bf91906134b7565b6112b2565b6040516103d19190613449565b60405180910390f35b6103f460048036038101906103ef9190613619565b61136c565b6040516104019190613449565b60405180910390f35b34801561041657600080fd5b5061041f611435565b60405161042c9190613684565b60405180910390f35b34801561044157600080fd5b5061044a61145b565b6040516104579190613135565b60405180910390f35b34801561046c57600080fd5b50610487600480360381019061048291906136cb565b6114ed565b005b34801561049557600080fd5b506104b060048036038101906104ab9190613216565b611503565b005b3480156104be57600080fd5b506104d960048036038101906104d4919061318d565b611685565b005b3480156104e757600080fd5b5061050260048036038101906104fd91906137ac565b61171f565b005b61051e6004803603810190610519919061318d565b61173c565b005b34801561052c57600080fd5b50610535611974565b6040516105429190613449565b60405180910390f35b34801561055757600080fd5b50610572600480360381019061056d919061318d565b61197a565b60405161057f9190613135565b60405180910390f35b6105a2600480360381019061059d9190613216565b611a8d565b005b3480156105b057600080fd5b506105cb60048036038101906105c6919061382f565b611c82565b6040516105d8919061308a565b60405180910390f35b6000634906490660e01b7bffffffffffffffffffffffffffffffffffffffffffffffffffffffff1916827bffffffffffffffffffffffffffffffffffffffffffffffffffffffff1916148061063b575061063a82611d16565b5b9050919050565b6060600080546106519061389e565b80601f016020809104026020016040519081016040528092919081815260200182805461067d9061389e565b80156106ca5780601f1061069f576101008083540402835291602001916106ca565b820191906000526020600020905b8154815290600101906020018083116106ad57829003601f168201915b5050505050905090565b60006106df82611df8565b506106e982611e80565b9050919050565b6000600c6000838152602001908152602001600020604051806080016040529081600082015481526020016001820160009054906101000a900473ffffffffffffffffffffffffffffffffffffffff1673ffffffffffffffffffffffffffffffffffffffff1673ffffffffffffffffffffffffffffffffffffffff168152602001600282015481526020016003820160009054906101000a900460ff161515151581525050905080606001516107db576040517f08c379a00000000000000000000000000000000000000000000000000000000081526004016107d290613941565b60405180910390fd5b82816040015114610821576040517f08c379a0000000000000000000000000000000000000000000000000000000008152600401610818906139d3565b60405180910390fd5b600061082c846112a0565b90506000610839846112a0565b90503373ffffffffffffffffffffffffffffffffffffffff168273ffffffffffffffffffffffffffffffffffffffff16146108a9576040517f08c379a00000000000000000000000000000000000000000000000000000000081526004016108a090613a65565b60405180910390fd5b6108b882846020015187611ebd565b6108c783602001518386611ebd565b6000600c600086815260200190815260200160002060030160006101000a81548160ff02191690831515021790555083857fc29968ecdb8f5a9da55278fca8d62439f377b44243e36aec38e419f2f780056284866020015160405161092d929190613a85565b60405180910390a35050505050565b61094e828261094961202a565b612032565b5050565b606060006109606007612044565b9050600061096e6008612044565b6109786007612044565b6109829190613add565b90506000808267ffffffffffffffff8111156109a1576109a06134ee565b5b6040519080825280602002602001820160405280156109da57816020015b6109c7612f79565b8152602001906001900390816109bf5790505b50905060005b84811015610ba9573073ffffffffffffffffffffffffffffffffffffffff16600b6000600184610a109190613b11565b815260200190815260200160002060020160009054906101000a900473ffffffffffffffffffffffffffffffffffffffff1673ffffffffffffffffffffffffffffffffffffffff1603610b9c576000600182610a6c9190613b11565b90506000600b60008381526020019081526020016000209050806040518060a0016040529081600082015481526020016001820160009054906101000a900473ffffffffffffffffffffffffffffffffffffffff1673ffffffffffffffffffffffffffffffffffffffff1673ffffffffffffffffffffffffffffffffffffffff1681526020016002820160009054906101000a900473ffffffffffffffffffffffffffffffffffffffff1673ffffffffffffffffffffffffffffffffffffffff1673ffffffffffffffffffffffffffffffffffffffff168152602001600382015481526020016004820160009054906101000a900460ff161515151581525050848681518110610b7f57610b7e613b45565b5b6020026020010181905250600185610b979190613b11565b945050505b80806001019150506109e0565b508094505050505090565b6000600954905090565b60606000610bcc6007612044565b905060008060005b83811015610c6e573373ffffffffffffffffffffffffffffffffffffffff16600b6000600184610c049190613b11565b815260200190815260200160002060020160009054906101000a900473ffffffffffffffffffffffffffffffffffffffff1673ffffffffffffffffffffffffffffffffffffffff1603610c6157600183610c5e9190613b11565b92505b8080600101915050610bd4565b5060008267ffffffffffffffff811115610c8b57610c8a6134ee565b5b604051908082528060200260200182016040528015610cc457816020015b610cb1612f79565b815260200190600190039081610ca95790505b50905060005b84811015610e93573373ffffffffffffffffffffffffffffffffffffffff16600b6000600184610cfa9190613b11565b815260200190815260200160002060020160009054906101000a900473ffffffffffffffffffffffffffffffffffffffff1673ffffffffffffffffffffffffffffffffffffffff1603610e86576000600182610d569190613b11565b90506000600b60008381526020019081526020016000209050806040518060a0016040529081600082015481526020016001820160009054906101000a900473ffffffffffffffffffffffffffffffffffffffff1673ffffffffffffffffffffffffffffffffffffffff1673ffffffffffffffffffffffffffffffffffffffff1681526020016002820160009054906101000a900473ffffffffffffffffffffffffffffffffffffffff1673ffffffffffffffffffffffffffffffffffffffff1673ffffffffffffffffffffffffffffffffffffffff168152602001600382015481526020016004820160009054906101000a900460ff161515151581525050848681518110610e6957610e68613b45565b5b6020026020010181905250600185610e819190613b11565b945050505b8080600101915050610cca565b508094505050505090565b600073ffffffffffffffffffffffffffffffffffffffff168273ffffffffffffffffffffffffffffffffffffffff1603610f105760006040517f64a0ae92000000000000000000000000000000000000000000000000000000008152600401610f0791906131fb565b60405180910390fd5b6000610f248383610f1f61202a565b612052565b90508373ffffffffffffffffffffffffffffffffffffffff168173ffffffffffffffffffffffffffffffffffffffff1614610f9a578382826040517f64283d7b000000000000000000000000000000000000000000000000000000008152600401610f9193929190613b74565b60405180910390fd5b50505050565b610fbb8383836040518060200160405280600081525061171f565b505050565b60606000610fce6007612044565b905060008060005b83811015611070573373ffffffffffffffffffffffffffffffffffffffff16600b60006001846110069190613b11565b815260200190815260200160002060010160009054906101000a900473ffffffffffffffffffffffffffffffffffffffff1673ffffffffffffffffffffffffffffffffffffffff1603611063576001836110609190613b11565b92505b8080600101915050610fd6565b5060008267ffffffffffffffff81111561108d5761108c6134ee565b5b6040519080825280602002602001820160405280156110c657816020015b6110b3612f79565b8152602001906001900390816110ab5790505b50905060005b84811015611295573373ffffffffffffffffffffffffffffffffffffffff16600b60006001846110fc9190613b11565b815260200190815260200160002060010160009054906101000a900473ffffffffffffffffffffffffffffffffffffffff1673ffffffffffffffffffffffffffffffffffffffff16036112885760006001826111589190613b11565b90506000600b60008381526020019081526020016000209050806040518060a0016040529081600082015481526020016001820160009054906101000a900473ffffffffffffffffffffffffffffffffffffffff1673ffffffffffffffffffffffffffffffffffffffff1673ffffffffffffffffffffffffffffffffffffffff1681526020016002820160009054906101000a900473ffffffffffffffffffffffffffffffffffffffff1673ffffffffffffffffffffffffffffffffffffffff1673ffffffffffffffffffffffffffffffffffffffff168152602001600382015481526020016004820160009054906101000a900460ff16151515158152505084868151811061126b5761126a613b45565b5b60200260200101819052506001856112839190613b11565b945050505b80806001019150506110cc565b508094505050505090565b60006112ab82611df8565b9050919050565b60008073ffffffffffffffffffffffffffffffffffffffff168273ffffffffffffffffffffffffffffffffffffffff16036113255760006040517f89c62b6400000000000000000000000000000000000000000000000000000000815260040161131c91906131fb565b60405180910390fd5b600360008373ffffffffffffffffffffffffffffffffffffffff1673ffffffffffffffffffffffffffffffffffffffff168152602001908152602001600020549050919050565b600060095434146113b2576040517f08c379a00000000000000000000000000000000000000000000000000000000081526004016113a990613bf7565b60405180910390fd5b600082116113f5576040517f08c379a00000000000000000000000000000000000000000000000000000000081526004016113ec90613c63565b60405180910390fd5b6113ff600761226c565b600061140b6007612044565b9050611417338261228b565b6114218185612384565b61142b81846123e0565b8091505092915050565b600a60009054906101000a900473ffffffffffffffffffffffffffffffffffffffff1681565b60606001805461146a9061389e565b80601f01602080910402602001604051908101604052809291908181526020018280546114969061389e565b80156114e35780601f106114b8576101008083540402835291602001916114e3565b820191906000526020600020905b8154815290600101906020018083116114c657829003601f168201915b5050505050905090565b6114ff6114f861202a565b838361255c565b5050565b3373ffffffffffffffffffffffffffffffffffffffff16611523836112a0565b73ffffffffffffffffffffffffffffffffffffffff1614611579576040517f08c379a000000000000000000000000000000000000000000000000000000000815260040161157090613cf5565b60405180910390fd5b60405180608001604052808381526020013373ffffffffffffffffffffffffffffffffffffffff16815260200182815260200160011515815250600c60008481526020019081526020016000206000820151816000015560208201518160010160006101000a81548173ffffffffffffffffffffffffffffffffffffffff021916908373ffffffffffffffffffffffffffffffffffffffff1602179055506040820151816002015560608201518160030160006101000a81548160ff021916908315150217905550905050817f403b984438a87c67676872dbe9c4f2b37d285e88ea767360cb75fff85be354913383600160405161167993929190613d15565b60405180910390a25050565b600a60009054906101000a900473ffffffffffffffffffffffffffffffffffffffff1673ffffffffffffffffffffffffffffffffffffffff163373ffffffffffffffffffffffffffffffffffffffff1614611715576040517f08c379a000000000000000000000000000000000000000000000000000000000815260040161170c90613dbe565b60405180910390fd5b8060098190555050565b61172a848484610e9e565b611736848484846126cb565b50505050565b6000600b6000838152602001908152602001600020600301549050803414611799576040517f08c379a000000000000000000000000000000000000000000000000000000000815260040161179090613e50565b60405180910390fd5b33600b600084815260200190815260200160002060020160006101000a81548173ffffffffffffffffffffffffffffffffffffffff021916908373ffffffffffffffffffffffffffffffffffffffff1602179055506001600b600084815260200190815260200160002060040160006101000a81548160ff0219169083151502179055506000600b600084815260200190815260200160002060010160006101000a81548173ffffffffffffffffffffffffffffffffffffffff021916908373ffffffffffffffffffffffffffffffffffffffff16021790555061187d600861226c565b611888303384611ebd565b600a60009054906101000a900473ffffffffffffffffffffffffffffffffffffffff1673ffffffffffffffffffffffffffffffffffffffff166108fc6009549081150290604051600060405180830381858888f193505050501580156118f2573d6000803e3d6000fd5b50600b600083815260200190815260200160002060010160009054906101000a900473ffffffffffffffffffffffffffffffffffffffff1673ffffffffffffffffffffffffffffffffffffffff166108fc349081150290604051600060405180830381858888f1935050505015801561196f573d6000803e3d6000fd5b505050565b60095481565b606061198582611df8565b5060006006600084815260200190815260200160002080546119a69061389e565b80601f01602080910402602001604051908101604052809291908181526020018280546119d29061389e565b8015611a1f5780601f106119f457610100808354040283529160200191611a1f565b820191906000526020600020905b815481529060010190602001808311611a0257829003601f168201915b505050505090506000611a30612882565b90506000815103611a45578192505050611a88565b600082511115611a7a578082604051602001611a62929190613eac565b60405160208183030381529060405292505050611a88565b611a8384612899565b925050505b919050565b3373ffffffffffffffffffffffffffffffffffffffff16600b600084815260200190815260200160002060020160009054906101000a900473ffffffffffffffffffffffffffffffffffffffff1673ffffffffffffffffffffffffffffffffffffffff1614611b31576040517f08c379a0000000000000000000000000000000000000000000000000000000008152600401611b2890613f42565b60405180910390fd5b6009543414611b75576040517f08c379a0000000000000000000000000000000000000000000000000000000008152600401611b6c90613bf7565b60405180910390fd5b6000600b600084815260200190815260200160002060040160006101000a81548160ff02191690831515021790555080600b60008481526020019081526020016000206003018190555033600b600084815260200190815260200160002060010160006101000a81548173ffffffffffffffffffffffffffffffffffffffff021916908373ffffffffffffffffffffffffffffffffffffffff16021790555030600b600084815260200190815260200160002060020160006101000a81548173ffffffffffffffffffffffffffffffffffffffff021916908373ffffffffffffffffffffffffffffffffffffffff160217905550611c736008612902565b611c7e333084611ebd565b5050565b6000600560008473ffffffffffffffffffffffffffffffffffffffff1673ffffffffffffffffffffffffffffffffffffffff16815260200190815260200160002060008373ffffffffffffffffffffffffffffffffffffffff1673ffffffffffffffffffffffffffffffffffffffff16815260200190815260200160002060009054906101000a900460ff16905092915050565b60007f80ac58cd000000000000000000000000000000000000000000000000000000007bffffffffffffffffffffffffffffffffffffffffffffffffffffffff1916827bffffffffffffffffffffffffffffffffffffffffffffffffffffffff19161480611de157507f5b5e139f000000000000000000000000000000000000000000000000000000007bffffffffffffffffffffffffffffffffffffffffffffffffffffffff1916827bffffffffffffffffffffffffffffffffffffffffffffffffffffffff1916145b80611df15750611df082612967565b5b9050919050565b600080611e04836129d1565b9050600073ffffffffffffffffffffffffffffffffffffffff168173ffffffffffffffffffffffffffffffffffffffff1603611e7757826040517f7e273289000000000000000000000000000000000000000000000000000000008152600401611e6e9190613449565b60405180910390fd5b80915050919050565b60006004600083815260200190815260200160002060009054906101000a900473ffffffffffffffffffffffffffffffffffffffff169050919050565b600073ffffffffffffffffffffffffffffffffffffffff168273ffffffffffffffffffffffffffffffffffffffff1603611f2f5760006040517f64a0ae92000000000000000000000000000000000000000000000000000000008152600401611f2691906131fb565b60405180910390fd5b6000611f3d83836000612052565b9050600073ffffffffffffffffffffffffffffffffffffffff168173ffffffffffffffffffffffffffffffffffffffff1603611fb057816040517f7e273289000000000000000000000000000000000000000000000000000000008152600401611fa79190613449565b60405180910390fd5b8373ffffffffffffffffffffffffffffffffffffffff168173ffffffffffffffffffffffffffffffffffffffff1614612024578382826040517f64283d7b00000000000000000000000000000000000000000000000000000000815260040161201b93929190613b74565b60405180910390fd5b50505050565b600033905090565b61203f8383836001612a0e565b505050565b600081600001549050919050565b60008061205e846129d1565b9050600073ffffffffffffffffffffffffffffffffffffffff168373ffffffffffffffffffffffffffffffffffffffff16146120a05761209f818486612bd3565b5b600073ffffffffffffffffffffffffffffffffffffffff168173ffffffffffffffffffffffffffffffffffffffff1614612131576120e2600085600080612a0e565b6001600360008373ffffffffffffffffffffffffffffffffffffffff1673ffffffffffffffffffffffffffffffffffffffff168152602001908152602001600020600082825403925050819055505b600073ffffffffffffffffffffffffffffffffffffffff168573ffffffffffffffffffffffffffffffffffffffff16146121b4576001600360008773ffffffffffffffffffffffffffffffffffffffff1673ffffffffffffffffffffffffffffffffffffffff168152602001908152602001600020600082825401925050819055505b846002600086815260200190815260200160002060006101000a81548173ffffffffffffffffffffffffffffffffffffffff021916908373ffffffffffffffffffffffffffffffffffffffff160217905550838573ffffffffffffffffffffffffffffffffffffffff168273ffffffffffffffffffffffffffffffffffffffff167fddf252ad1be2c89b69c2b068fc378daa952ba7f163c4a11628f55a4df523b3ef60405160405180910390a4809150509392505050565b60018160000160008282546122819190613b11565b9250508190555050565b600073ffffffffffffffffffffffffffffffffffffffff168273ffffffffffffffffffffffffffffffffffffffff16036122fd5760006040517f64a0ae920000000000000000000000000000000000000000000000000000000081526004016122f491906131fb565b60405180910390fd5b600061230b83836000612052565b9050600073ffffffffffffffffffffffffffffffffffffffff168173ffffffffffffffffffffffffffffffffffffffff161461237f5760006040517f73c6ac6e00000000000000000000000000000000000000000000000000000000815260040161237691906131fb565b60405180910390fd5b505050565b806006600084815260200190815260200160002090816123a4919061410e565b507ff8e1a15aba9398e019f0b49df1a4fde98ee17ae345cb5f6b5e2c27f5033e8ce7826040516123d49190613449565b60405180910390a15050565b6040518060a001604052808381526020013373ffffffffffffffffffffffffffffffffffffffff1681526020013073ffffffffffffffffffffffffffffffffffffffff16815260200182815260200160001515815250600b60008481526020019081526020016000206000820151816000015560208201518160010160006101000a81548173ffffffffffffffffffffffffffffffffffffffff021916908373ffffffffffffffffffffffffffffffffffffffff16021790555060408201518160020160006101000a81548173ffffffffffffffffffffffffffffffffffffffff021916908373ffffffffffffffffffffffffffffffffffffffff1602179055506060820151816003015560808201518160040160006101000a81548160ff021916908315150217905550905050612519333084611ebd565b817fb640004f1d14576d0c209e240cad0410e0d8c0c33a09375861fbadae2588a98d333084600060405161255094939291906141e0565b60405180910390a25050565b600073ffffffffffffffffffffffffffffffffffffffff168273ffffffffffffffffffffffffffffffffffffffff16036125cd57816040517f5b08ba180000000000000000000000000000000000000000000000000000000081526004016125c491906131fb565b60405180910390fd5b80600560008573ffffffffffffffffffffffffffffffffffffffff1673ffffffffffffffffffffffffffffffffffffffff16815260200190815260200160002060008473ffffffffffffffffffffffffffffffffffffffff1673ffffffffffffffffffffffffffffffffffffffff16815260200190815260200160002060006101000a81548160ff0219169083151502179055508173ffffffffffffffffffffffffffffffffffffffff168373ffffffffffffffffffffffffffffffffffffffff167f17307eab39ab6107e8899845ad3d59bd9653f200f220920489ca2b5937696c31836040516126be919061308a565b60405180910390a3505050565b60008373ffffffffffffffffffffffffffffffffffffffff163b111561287c578273ffffffffffffffffffffffffffffffffffffffff1663150b7a0261270f61202a565b8685856040518563ffffffff1660e01b8152600401612731949392919061427a565b6020604051808303816000875af192505050801561276d57506040513d601f19601f8201168201806040525081019061276a91906142db565b60015b6127f1573d806000811461279d576040519150601f19603f3d011682016040523d82523d6000602084013e6127a2565b606091505b5060008151036127e957836040517f64a0ae920000000000000000000000000000000000000000000000000000000081526004016127e091906131fb565b60405180910390fd5b805181602001fd5b63150b7a0260e01b7bffffffffffffffffffffffffffffffffffffffffffffffffffffffff1916817bffffffffffffffffffffffffffffffffffffffffffffffffffffffff19161461287a57836040517f64a0ae9200000000000000000000000000000000000000000000000000000000815260040161287191906131fb565b60405180910390fd5b505b50505050565b606060405180602001604052806000815250905090565b60606128a482611df8565b5060006128af612882565b905060008151116128cf57604051806020016040528060008152506128fa565b806128d984612c97565b6040516020016128ea929190613eac565b6040516020818303038152906040525b915050919050565b6000816000015490506000811161294e576040517f08c379a000000000000000000000000000000000000000000000000000000000815260040161294590614354565b60405180910390fd5b60018161295b9190613add565b82600001819055505050565b60007f01ffc9a7000000000000000000000000000000000000000000000000000000007bffffffffffffffffffffffffffffffffffffffffffffffffffffffff1916827bffffffffffffffffffffffffffffffffffffffffffffffffffffffff1916149050919050565b60006002600083815260200190815260200160002060009054906101000a900473ffffffffffffffffffffffffffffffffffffffff169050919050565b8080612a475750600073ffffffffffffffffffffffffffffffffffffffff168273ffffffffffffffffffffffffffffffffffffffff1614155b15612b7b576000612a5784611df8565b9050600073ffffffffffffffffffffffffffffffffffffffff168373ffffffffffffffffffffffffffffffffffffffff1614158015612ac257508273ffffffffffffffffffffffffffffffffffffffff168173ffffffffffffffffffffffffffffffffffffffff1614155b8015612ad55750612ad38184611c82565b155b15612b1757826040517fa9fbf51f000000000000000000000000000000000000000000000000000000008152600401612b0e91906131fb565b60405180910390fd5b8115612b7957838573ffffffffffffffffffffffffffffffffffffffff168273ffffffffffffffffffffffffffffffffffffffff167f8c5be1e5ebec7d5bd14f71427d1e84f3dd0314c0f7b2291e5b200ac8c7c3b92560405160405180910390a45b505b836004600085815260200190815260200160002060006101000a81548173ffffffffffffffffffffffffffffffffffffffff021916908373ffffffffffffffffffffffffffffffffffffffff16021790555050505050565b612bde838383612d65565b612c9257600073ffffffffffffffffffffffffffffffffffffffff168373ffffffffffffffffffffffffffffffffffffffff1603612c5357806040517f7e273289000000000000000000000000000000000000000000000000000000008152600401612c4a9190613449565b60405180910390fd5b81816040517f177e802f000000000000000000000000000000000000000000000000000000008152600401612c89929190614374565b60405180910390fd5b505050565b606060006001612ca684612e26565b01905060008167ffffffffffffffff811115612cc557612cc46134ee565b5b6040519080825280601f01601f191660200182016040528015612cf75781602001600182028036833780820191505090505b509050600082602001820190505b600115612d5a578080600190039150507f3031323334353637383961626364656600000000000000000000000000000000600a86061a8153600a8581612d4e57612d4d61439d565b5b04945060008503612d05575b819350505050919050565b60008073ffffffffffffffffffffffffffffffffffffffff168373ffffffffffffffffffffffffffffffffffffffff1614158015612e1d57508273ffffffffffffffffffffffffffffffffffffffff168473ffffffffffffffffffffffffffffffffffffffff161480612dde5750612ddd8484611c82565b5b80612e1c57508273ffffffffffffffffffffffffffffffffffffffff16612e0483611e80565b73ffffffffffffffffffffffffffffffffffffffff16145b5b90509392505050565b600080600090507a184f03e93ff9f4daa797ed6e38ed64bf6a1f0100000000000000008310612e84577a184f03e93ff9f4daa797ed6e38ed64bf6a1f0100000000000000008381612e7a57612e7961439d565b5b0492506040810190505b6d04ee2d6d415b85acef81000000008310612ec1576d04ee2d6d415b85acef81000000008381612eb757612eb661439d565b5b0492506020810190505b662386f26fc100008310612ef057662386f26fc100008381612ee657612ee561439d565b5b0492506010810190505b6305f5e1008310612f19576305f5e1008381612f0f57612f0e61439d565b5b0492506008810190505b6127108310612f3e576127108381612f3457612f3361439d565b5b0492506004810190505b60648310612f615760648381612f5757612f5661439d565b5b0492506002810190505b600a8310612f70576001810190505b80915050919050565b6040518060a0016040528060008152602001600073ffffffffffffffffffffffffffffffffffffffff168152602001600073ffffffffffffffffffffffffffffffffffffffff168152602001600081526020016000151581525090565b6000604051905090565b600080fd5b600080fd5b60007fffffffff0000000000000000000000000000000000000000000000000000000082169050919050565b61301f81612fea565b811461302a57600080fd5b50565b60008135905061303c81613016565b92915050565b60006020828403121561305857613057612fe0565b5b60006130668482850161302d565b91505092915050565b60008115159050919050565b6130848161306f565b82525050565b600060208201905061309f600083018461307b565b92915050565b600081519050919050565b600082825260208201905092915050565b60005b838110156130df5780820151818401526020810190506130c4565b60008484015250505050565b6000601f19601f8301169050919050565b6000613107826130a5565b61311181856130b0565b93506131218185602086016130c1565b61312a816130eb565b840191505092915050565b6000602082019050818103600083015261314f81846130fc565b905092915050565b6000819050919050565b61316a81613157565b811461317557600080fd5b50565b60008135905061318781613161565b92915050565b6000602082840312156131a3576131a2612fe0565b5b60006131b184828501613178565b91505092915050565b600073ffffffffffffffffffffffffffffffffffffffff82169050919050565b60006131e5826131ba565b9050919050565b6131f5816131da565b82525050565b600060208201905061321060008301846131ec565b92915050565b6000806040838503121561322d5761322c612fe0565b5b600061323b85828601613178565b925050602061324c85828601613178565b9150509250929050565b61325f816131da565b811461326a57600080fd5b50565b60008135905061327c81613256565b92915050565b6000806040838503121561329957613298612fe0565b5b60006132a78582860161326d565b92505060206132b885828601613178565b9150509250929050565b600081519050919050565b600082825260208201905092915050565b6000819050602082019050919050565b6132f781613157565b82525050565b6000613308826131ba565b9050919050565b613318816132fd565b82525050565b6133278161306f565b82525050565b60a08201600082015161334360008501826132ee565b506020820151613356602085018261330f565b506040820151613369604085018261330f565b50606082015161337c60608501826132ee565b50608082015161338f608085018261331e565b50505050565b60006133a1838361332d565b60a08301905092915050565b6000602082019050919050565b60006133c5826132c2565b6133cf81856132cd565b93506133da836132de565b8060005b8381101561340b5781516133f28882613395565b97506133fd836133ad565b9250506001810190506133de565b5085935050505092915050565b6000602082019050818103600083015261343281846133ba565b905092915050565b61344381613157565b82525050565b600060208201905061345e600083018461343a565b92915050565b60008060006060848603121561347d5761347c612fe0565b5b600061348b8682870161326d565b935050602061349c8682870161326d565b92505060406134ad86828701613178565b9150509250925092565b6000602082840312156134cd576134cc612fe0565b5b60006134db8482850161326d565b91505092915050565b600080fd5b600080fd5b7f4e487b7100000000000000000000000000000000000000000000000000000000600052604160045260246000fd5b613526826130eb565b810181811067ffffffffffffffff82111715613545576135446134ee565b5b80604052505050565b6000613558612fd6565b9050613564828261351d565b919050565b600067ffffffffffffffff821115613584576135836134ee565b5b61358d826130eb565b9050602081019050919050565b82818337600083830152505050565b60006135bc6135b784613569565b61354e565b9050828152602081018484840111156135d8576135d76134e9565b5b6135e384828561359a565b509392505050565b600082601f830112613600576135ff6134e4565b5b81356136108482602086016135a9565b91505092915050565b600080604083850312156136305761362f612fe0565b5b600083013567ffffffffffffffff81111561364e5761364d612fe5565b5b61365a858286016135eb565b925050602061366b85828601613178565b9150509250929050565b61367e816132fd565b82525050565b60006020820190506136996000830184613675565b92915050565b6136a88161306f565b81146136b357600080fd5b50565b6000813590506136c58161369f565b92915050565b600080604083850312156136e2576136e1612fe0565b5b60006136f08582860161326d565b9250506020613701858286016136b6565b9150509250929050565b600067ffffffffffffffff821115613726576137256134ee565b5b61372f826130eb565b9050602081019050919050565b600061374f61374a8461370b565b61354e565b90508281526020810184848401111561376b5761376a6134e9565b5b61377684828561359a565b509392505050565b600082601f830112613793576137926134e4565b5b81356137a384826020860161373c565b91505092915050565b600080600080608085870312156137c6576137c5612fe0565b5b60006137d48782880161326d565b94505060206137e58782880161326d565b93505060406137f687828801613178565b925050606085013567ffffffffffffffff81111561381757613816612fe5565b5b6138238782880161377e565b91505092959194509250565b6000806040838503121561384657613845612fe0565b5b60006138548582860161326d565b92505060206138658582860161326d565b9150509250929050565b7f4e487b7100000000000000000000000000000000000000000000000000000000600052602260045260246000fd5b600060028204905060018216806138b657607f821691505b6020821081036138c9576138c861386f565b5b50919050565b7f546865206465736972656420746f6b656e206973206e6f7420617661696c616260008201527f6c6520666f722062617274657200000000000000000000000000000000000000602082015250565b600061392b602d836130b0565b9150613936826138cf565b604082019050919050565b6000602082019050818103600083015261395a8161391e565b9050919050565b7f546865206f66666572656420746f6b656e20646f6573206e6f74206d6174636860008201527f20746865206465736972656420746f6b656e0000000000000000000000000000602082015250565b60006139bd6032836130b0565b91506139c882613961565b604082019050919050565b600060208201905081810360008301526139ec816139b0565b9050919050565b7f4f6e6c7920746865206f776e6572206f6620746865206f66666572656420746f60008201527f6b656e2063616e20616363657074207468652074726164650000000000000000602082015250565b6000613a4f6038836130b0565b9150613a5a826139f3565b604082019050919050565b60006020820190508181036000830152613a7e81613a42565b9050919050565b6000604082019050613a9a60008301856131ec565b613aa760208301846131ec565b9392505050565b7f4e487b7100000000000000000000000000000000000000000000000000000000600052601160045260246000fd5b6000613ae882613157565b9150613af383613157565b9250828203905081811115613b0b57613b0a613aae565b5b92915050565b6000613b1c82613157565b9150613b2783613157565b9250828201905080821115613b3f57613b3e613aae565b5b92915050565b7f4e487b7100000000000000000000000000000000000000000000000000000000600052603260045260246000fd5b6000606082019050613b8960008301866131ec565b613b96602083018561343a565b613ba360408301846131ec565b949350505050565b7f5072696365206d75737420657175616c206c697374696e672070726963650000600082015250565b6000613be1601e836130b0565b9150613bec82613bab565b602082019050919050565b60006020820190508181036000830152613c1081613bd4565b9050919050565b7f5072696365206d757374206265206174206c6561737420312077656900000000600082015250565b6000613c4d601c836130b0565b9150613c5882613c17565b602082019050919050565b60006020820190508181036000830152613c7c81613c40565b9050919050565b7f4f6e6c7920746865206f776e65722063616e206c6973742074686520746f6b6560008201527f6e20666f72206261727465720000000000000000000000000000000000000000602082015250565b6000613cdf602c836130b0565b9150613cea82613c83565b604082019050919050565b60006020820190508181036000830152613d0e81613cd2565b9050919050565b6000606082019050613d2a60008301866131ec565b613d37602083018561343a565b613d44604083018461307b565b949350505050565b7f4f6e6c7920746865206f776e65722063616e20706572666f726d20746869732060008201527f6f7065726174696f6e0000000000000000000000000000000000000000000000602082015250565b6000613da86029836130b0565b9150613db382613d4c565b604082019050919050565b60006020820190508181036000830152613dd781613d9b565b9050919050565b7f506c65617365207375626d69742061736b696e6720707269636520696e206f7260008201527f64657220746f20636f6d706c6574652074686520707572636861736500000000602082015250565b6000613e3a603c836130b0565b9150613e4582613dde565b604082019050919050565b60006020820190508181036000830152613e6981613e2d565b9050919050565b600081905092915050565b6000613e86826130a5565b613e908185613e70565b9350613ea08185602086016130c1565b80840191505092915050565b6000613eb88285613e7b565b9150613ec48284613e7b565b91508190509392505050565b7f4f6e6c79206974656d206f776e65722063616e20706572666f726d207468697360008201527f206f7065726174696f6e00000000000000000000000000000000000000000000602082015250565b6000613f2c602a836130b0565b9150613f3782613ed0565b604082019050919050565b60006020820190508181036000830152613f5b81613f1f565b9050919050565b60008190508160005260206000209050919050565b60006020601f8301049050919050565b600082821b905092915050565b600060088302613fc47fffffffffffffffffffffffffffffffffffffffffffffffffffffffffffffffff82613f87565b613fce8683613f87565b95508019841693508086168417925050509392505050565b6000819050919050565b600061400b61400661400184613157565b613fe6565b613157565b9050919050565b6000819050919050565b61402583613ff0565b61403961403182614012565b848454613f94565b825550505050565b600090565b61404e614041565b61405981848461401c565b505050565b5b8181101561407d57614072600082614046565b60018101905061405f565b5050565b601f8211156140c25761409381613f62565b61409c84613f77565b810160208510156140ab578190505b6140bf6140b785613f77565b83018261405e565b50505b505050565b600082821c905092915050565b60006140e5600019846008026140c7565b1980831691505092915050565b60006140fe83836140d4565b9150826002028217905092915050565b614117826130a5565b67ffffffffffffffff8111156141305761412f6134ee565b5b61413a825461389e565b614145828285614081565b600060209050601f8311600181146141785760008415614166578287015190505b61417085826140f2565b8655506141d8565b601f19841661418686613f62565b60005b828110156141ae57848901518255600182019150602085019450602081019050614189565b868310156141cb57848901516141c7601f8916826140d4565b8355505b6001600288020188555050505b505050505050565b60006080820190506141f560008301876131ec565b61420260208301866131ec565b61420f604083018561343a565b61421c606083018461307b565b95945050505050565b600081519050919050565b600082825260208201905092915050565b600061424c82614225565b6142568185614230565b93506142668185602086016130c1565b61426f816130eb565b840191505092915050565b600060808201905061428f60008301876131ec565b61429c60208301866131ec565b6142a9604083018561343a565b81810360608301526142bb8184614241565b905095945050505050565b6000815190506142d581613016565b92915050565b6000602082840312156142f1576142f0612fe0565b5b60006142ff848285016142c6565b91505092915050565b7f436f756e7465723a2064656372656d656e74206f766572666c6f770000000000600082015250565b600061433e601b836130b0565b915061434982614308565b602082019050919050565b6000602082019050818103600083015261436d81614331565b9050919050565b600060408201905061438960008301856131ec565b614396602083018461343a565b9392505050565b7f4e487b7100000000000000000000000000000000000000000000000000000000600052601260045260246000fdfea2646970667358221220bc75e1e89aa1e171ed198de8a8e7f337048402c07a141bbe1555c3a70715047264736f6c63430008180033",
  "linkReferences": {},
  "deployedLinkReferences": {}
}